{
  "_format": "hh-sol-artifact-1",
  "contractName": "DappEventX",
  "sourceName": "contracts/DappEventX.sol",
  "abi": [
    {
      "inputs": [
        {
          "internalType": "uint256",
          "name": "_pct",
          "type": "uint256"
        }
      ],
      "stateMutability": "nonpayable",
      "type": "constructor"
    },
    {
      "anonymous": false,
      "inputs": [
        {
          "indexed": true,
          "internalType": "address",
          "name": "owner",
          "type": "address"
        },
        {
          "indexed": true,
          "internalType": "address",
          "name": "approved",
          "type": "address"
        },
        {
          "indexed": true,
          "internalType": "uint256",
          "name": "tokenId",
          "type": "uint256"
        }
      ],
      "name": "Approval",
      "type": "event"
    },
    {
      "anonymous": false,
      "inputs": [
        {
          "indexed": true,
          "internalType": "address",
          "name": "owner",
          "type": "address"
        },
        {
          "indexed": true,
          "internalType": "address",
          "name": "operator",
          "type": "address"
        },
        {
          "indexed": false,
          "internalType": "bool",
          "name": "approved",
          "type": "bool"
        }
      ],
      "name": "ApprovalForAll",
      "type": "event"
    },
    {
      "anonymous": false,
      "inputs": [
        {
          "indexed": true,
          "internalType": "address",
          "name": "previousOwner",
          "type": "address"
        },
        {
          "indexed": true,
          "internalType": "address",
          "name": "newOwner",
          "type": "address"
        }
      ],
      "name": "OwnershipTransferred",
      "type": "event"
    },
    {
      "anonymous": false,
      "inputs": [
        {
          "indexed": true,
          "internalType": "address",
          "name": "from",
          "type": "address"
        },
        {
          "indexed": true,
          "internalType": "address",
          "name": "to",
          "type": "address"
        },
        {
          "indexed": true,
          "internalType": "uint256",
          "name": "tokenId",
          "type": "uint256"
        }
      ],
      "name": "Transfer",
      "type": "event"
    },
    {
      "inputs": [
        {
          "internalType": "address",
          "name": "to",
          "type": "address"
        },
        {
          "internalType": "uint256",
          "name": "tokenId",
          "type": "uint256"
        }
      ],
      "name": "approve",
      "outputs": [],
      "stateMutability": "nonpayable",
      "type": "function"
    },
    {
      "inputs": [],
      "name": "balance",
      "outputs": [
        {
          "internalType": "uint256",
          "name": "",
          "type": "uint256"
        }
      ],
      "stateMutability": "view",
      "type": "function"
    },
    {
      "inputs": [
        {
          "internalType": "address",
          "name": "owner",
          "type": "address"
        }
      ],
      "name": "balanceOf",
      "outputs": [
        {
          "internalType": "uint256",
          "name": "",
          "type": "uint256"
        }
      ],
      "stateMutability": "view",
      "type": "function"
    },
    {
      "inputs": [
        {
          "internalType": "uint256",
          "name": "eventId",
          "type": "uint256"
        },
        {
          "internalType": "uint256",
          "name": "numOfticket",
          "type": "uint256"
        }
      ],
      "name": "buyTickets",
      "outputs": [],
      "stateMutability": "payable",
      "type": "function"
    },
    {
      "inputs": [
        {
          "internalType": "string",
          "name": "title",
          "type": "string"
        },
        {
          "internalType": "string",
          "name": "description",
          "type": "string"
        },
        {
          "internalType": "string",
          "name": "imageUrl",
          "type": "string"
        },
        {
          "internalType": "uint256",
          "name": "capacity",
          "type": "uint256"
        },
        {
          "internalType": "uint256",
          "name": "ticketCost",
          "type": "uint256"
        },
        {
          "internalType": "uint256",
          "name": "startsAt",
          "type": "uint256"
        },
        {
          "internalType": "uint256",
          "name": "endsAt",
          "type": "uint256"
        }
      ],
      "name": "createEvent",
      "outputs": [],
      "stateMutability": "nonpayable",
      "type": "function"
    },
    {
      "inputs": [
        {
          "internalType": "uint256",
          "name": "eventId",
          "type": "uint256"
        }
      ],
      "name": "deleteEvent",
      "outputs": [],
      "stateMutability": "nonpayable",
      "type": "function"
    },
    {
      "inputs": [
        {
          "internalType": "uint256",
          "name": "tokenId",
          "type": "uint256"
        }
      ],
      "name": "getApproved",
      "outputs": [
        {
          "internalType": "address",
          "name": "",
          "type": "address"
        }
      ],
      "stateMutability": "view",
      "type": "function"
    },
    {
      "inputs": [],
      "name": "getEvents",
      "outputs": [
        {
          "components": [
            {
              "internalType": "uint256",
              "name": "id",
              "type": "uint256"
            },
            {
              "internalType": "string",
              "name": "title",
              "type": "string"
            },
            {
              "internalType": "string",
              "name": "imageUrl",
              "type": "string"
            },
            {
              "internalType": "string",
              "name": "description",
              "type": "string"
            },
            {
              "internalType": "address",
              "name": "owner",
              "type": "address"
            },
            {
              "internalType": "uint256",
              "name": "sales",
              "type": "uint256"
            },
            {
              "internalType": "uint256",
              "name": "ticketCost",
              "type": "uint256"
            },
            {
              "internalType": "uint256",
              "name": "capacity",
              "type": "uint256"
            },
            {
              "internalType": "uint256",
              "name": "seats",
              "type": "uint256"
            },
            {
              "internalType": "uint256",
              "name": "startsAt",
              "type": "uint256"
            },
            {
              "internalType": "uint256",
              "name": "endsAt",
              "type": "uint256"
            },
            {
              "internalType": "uint256",
              "name": "timestamp",
              "type": "uint256"
            },
            {
              "internalType": "bool",
              "name": "deleted",
              "type": "bool"
            },
            {
              "internalType": "bool",
              "name": "paidOut",
              "type": "bool"
            },
            {
              "internalType": "bool",
              "name": "refunded",
              "type": "bool"
            },
            {
              "internalType": "bool",
              "name": "minted",
              "type": "bool"
            }
          ],
          "internalType": "struct DappEventX.EventStruct[]",
          "name": "Events",
          "type": "tuple[]"
        }
      ],
      "stateMutability": "view",
      "type": "function"
    },
    {
      "inputs": [],
      "name": "getMyEvents",
      "outputs": [
        {
          "components": [
            {
              "internalType": "uint256",
              "name": "id",
              "type": "uint256"
            },
            {
              "internalType": "string",
              "name": "title",
              "type": "string"
            },
            {
              "internalType": "string",
              "name": "imageUrl",
              "type": "string"
            },
            {
              "internalType": "string",
              "name": "description",
              "type": "string"
            },
            {
              "internalType": "address",
              "name": "owner",
              "type": "address"
            },
            {
              "internalType": "uint256",
              "name": "sales",
              "type": "uint256"
            },
            {
              "internalType": "uint256",
              "name": "ticketCost",
              "type": "uint256"
            },
            {
              "internalType": "uint256",
              "name": "capacity",
              "type": "uint256"
            },
            {
              "internalType": "uint256",
              "name": "seats",
              "type": "uint256"
            },
            {
              "internalType": "uint256",
              "name": "startsAt",
              "type": "uint256"
            },
            {
              "internalType": "uint256",
              "name": "endsAt",
              "type": "uint256"
            },
            {
              "internalType": "uint256",
              "name": "timestamp",
              "type": "uint256"
            },
            {
              "internalType": "bool",
              "name": "deleted",
              "type": "bool"
            },
            {
              "internalType": "bool",
              "name": "paidOut",
              "type": "bool"
            },
            {
              "internalType": "bool",
              "name": "refunded",
              "type": "bool"
            },
            {
              "internalType": "bool",
              "name": "minted",
              "type": "bool"
            }
          ],
          "internalType": "struct DappEventX.EventStruct[]",
          "name": "Events",
          "type": "tuple[]"
        }
      ],
      "stateMutability": "view",
      "type": "function"
    },
    {
      "inputs": [
        {
          "internalType": "uint256",
          "name": "eventId",
          "type": "uint256"
        }
      ],
      "name": "getSingleEvent",
      "outputs": [
        {
          "components": [
            {
              "internalType": "uint256",
              "name": "id",
              "type": "uint256"
            },
            {
              "internalType": "string",
              "name": "title",
              "type": "string"
            },
            {
              "internalType": "string",
              "name": "imageUrl",
              "type": "string"
            },
            {
              "internalType": "string",
              "name": "description",
              "type": "string"
            },
            {
              "internalType": "address",
              "name": "owner",
              "type": "address"
            },
            {
              "internalType": "uint256",
              "name": "sales",
              "type": "uint256"
            },
            {
              "internalType": "uint256",
              "name": "ticketCost",
              "type": "uint256"
            },
            {
              "internalType": "uint256",
              "name": "capacity",
              "type": "uint256"
            },
            {
              "internalType": "uint256",
              "name": "seats",
              "type": "uint256"
            },
            {
              "internalType": "uint256",
              "name": "startsAt",
              "type": "uint256"
            },
            {
              "internalType": "uint256",
              "name": "endsAt",
              "type": "uint256"
            },
            {
              "internalType": "uint256",
              "name": "timestamp",
              "type": "uint256"
            },
            {
              "internalType": "bool",
              "name": "deleted",
              "type": "bool"
            },
            {
              "internalType": "bool",
              "name": "paidOut",
              "type": "bool"
            },
            {
              "internalType": "bool",
              "name": "refunded",
              "type": "bool"
            },
            {
              "internalType": "bool",
              "name": "minted",
              "type": "bool"
            }
          ],
          "internalType": "struct DappEventX.EventStruct",
          "name": "",
          "type": "tuple"
        }
      ],
      "stateMutability": "view",
      "type": "function"
    },
    {
      "inputs": [
        {
          "internalType": "uint256",
          "name": "eventId",
          "type": "uint256"
        }
      ],
      "name": "getTickets",
      "outputs": [
        {
          "components": [
            {
              "internalType": "uint256",
              "name": "id",
              "type": "uint256"
            },
            {
              "internalType": "uint256",
              "name": "eventId",
              "type": "uint256"
            },
            {
              "internalType": "address",
              "name": "owner",
              "type": "address"
            },
            {
              "internalType": "uint256",
              "name": "ticketCost",
              "type": "uint256"
            },
            {
              "internalType": "uint256",
              "name": "timestamp",
              "type": "uint256"
            },
            {
              "internalType": "bool",
              "name": "refunded",
              "type": "bool"
            },
            {
              "internalType": "bool",
              "name": "minted",
              "type": "bool"
            }
          ],
          "internalType": "struct DappEventX.TicketStruct[]",
          "name": "Tickets",
          "type": "tuple[]"
        }
      ],
      "stateMutability": "view",
      "type": "function"
    },
    {
      "inputs": [
        {
          "internalType": "address",
          "name": "owner",
          "type": "address"
        },
        {
          "internalType": "address",
          "name": "operator",
          "type": "address"
        }
      ],
      "name": "isApprovedForAll",
      "outputs": [
        {
          "internalType": "bool",
          "name": "",
          "type": "bool"
        }
      ],
      "stateMutability": "view",
      "type": "function"
    },
    {
      "inputs": [],
      "name": "name",
      "outputs": [
        {
          "internalType": "string",
          "name": "",
          "type": "string"
        }
      ],
      "stateMutability": "view",
      "type": "function"
    },
    {
      "inputs": [],
      "name": "owner",
      "outputs": [
        {
          "internalType": "address",
          "name": "",
          "type": "address"
        }
      ],
      "stateMutability": "view",
      "type": "function"
    },
    {
      "inputs": [
        {
          "internalType": "uint256",
          "name": "tokenId",
          "type": "uint256"
        }
      ],
      "name": "ownerOf",
      "outputs": [
        {
          "internalType": "address",
          "name": "",
          "type": "address"
        }
      ],
      "stateMutability": "view",
      "type": "function"
    },
    {
      "inputs": [
        {
          "internalType": "uint256",
          "name": "eventId",
          "type": "uint256"
        }
      ],
      "name": "payout",
      "outputs": [],
      "stateMutability": "nonpayable",
      "type": "function"
    },
    {
      "inputs": [],
      "name": "renounceOwnership",
      "outputs": [],
      "stateMutability": "nonpayable",
      "type": "function"
    },
    {
      "inputs": [
        {
          "internalType": "address",
          "name": "from",
          "type": "address"
        },
        {
          "internalType": "address",
          "name": "to",
          "type": "address"
        },
        {
          "internalType": "uint256",
          "name": "tokenId",
          "type": "uint256"
        }
      ],
      "name": "safeTransferFrom",
      "outputs": [],
      "stateMutability": "nonpayable",
      "type": "function"
    },
    {
      "inputs": [
        {
          "internalType": "address",
          "name": "from",
          "type": "address"
        },
        {
          "internalType": "address",
          "name": "to",
          "type": "address"
        },
        {
          "internalType": "uint256",
          "name": "tokenId",
          "type": "uint256"
        },
        {
          "internalType": "bytes",
          "name": "data",
          "type": "bytes"
        }
      ],
      "name": "safeTransferFrom",
      "outputs": [],
      "stateMutability": "nonpayable",
      "type": "function"
    },
    {
      "inputs": [
        {
          "internalType": "address",
          "name": "operator",
          "type": "address"
        },
        {
          "internalType": "bool",
          "name": "approved",
          "type": "bool"
        }
      ],
      "name": "setApprovalForAll",
      "outputs": [],
      "stateMutability": "nonpayable",
      "type": "function"
    },
    {
      "inputs": [
        {
          "internalType": "bytes4",
          "name": "interfaceId",
          "type": "bytes4"
        }
      ],
      "name": "supportsInterface",
      "outputs": [
        {
          "internalType": "bool",
          "name": "",
          "type": "bool"
        }
      ],
      "stateMutability": "view",
      "type": "function"
    },
    {
      "inputs": [],
      "name": "symbol",
      "outputs": [
        {
          "internalType": "string",
          "name": "",
          "type": "string"
        }
      ],
      "stateMutability": "view",
      "type": "function"
    },
    {
      "inputs": [
        {
          "internalType": "uint256",
          "name": "tokenId",
          "type": "uint256"
        }
      ],
      "name": "tokenURI",
      "outputs": [
        {
          "internalType": "string",
          "name": "",
          "type": "string"
        }
      ],
      "stateMutability": "view",
      "type": "function"
    },
    {
      "inputs": [
        {
          "internalType": "address",
          "name": "from",
          "type": "address"
        },
        {
          "internalType": "address",
          "name": "to",
          "type": "address"
        },
        {
          "internalType": "uint256",
          "name": "tokenId",
          "type": "uint256"
        }
      ],
      "name": "transferFrom",
      "outputs": [],
      "stateMutability": "nonpayable",
      "type": "function"
    },
    {
      "inputs": [
        {
          "internalType": "address",
          "name": "newOwner",
          "type": "address"
        }
      ],
      "name": "transferOwnership",
      "outputs": [],
      "stateMutability": "nonpayable",
      "type": "function"
    },
    {
      "inputs": [
        {
          "internalType": "uint256",
          "name": "eventId",
          "type": "uint256"
        },
        {
          "internalType": "string",
          "name": "title",
          "type": "string"
        },
        {
          "internalType": "string",
          "name": "description",
          "type": "string"
        },
        {
          "internalType": "string",
          "name": "imageUrl",
          "type": "string"
        },
        {
          "internalType": "uint256",
          "name": "capacity",
          "type": "uint256"
        },
        {
          "internalType": "uint256",
          "name": "ticketCost",
          "type": "uint256"
        },
        {
          "internalType": "uint256",
          "name": "startsAt",
          "type": "uint256"
        },
        {
          "internalType": "uint256",
          "name": "endsAt",
          "type": "uint256"
        }
      ],
      "name": "updateEvent",
      "outputs": [],
      "stateMutability": "nonpayable",
      "type": "function"
    }
  ],
  "bytecode": "0x60806040523480156200001157600080fd5b506040516200696e3803806200696e83398181016040528101906200003791906200020a565b6040518060400160405280600781526020017f4576656e742058000000000000000000000000000000000000000000000000008152506040518060400160405280600381526020017f4556580000000000000000000000000000000000000000000000000000000000815250620000c3620000b7620000fe60201b60201c565b6200010660201b60201c565b600180819055508160029081620000db9190620004ac565b508060039081620000ed9190620004ac565b50505080600b819055505062000593565b600033905090565b60008060009054906101000a900473ffffffffffffffffffffffffffffffffffffffff169050816000806101000a81548173ffffffffffffffffffffffffffffffffffffffff021916908373ffffffffffffffffffffffffffffffffffffffff1602179055508173ffffffffffffffffffffffffffffffffffffffff168173ffffffffffffffffffffffffffffffffffffffff167f8be0079c531659141344cd1fd0a4f28419497f9722a3daafe3b4186f6b6457e060405160405180910390a35050565b600080fd5b6000819050919050565b620001e481620001cf565b8114620001f057600080fd5b50565b6000815190506200020481620001d9565b92915050565b600060208284031215620002235762000222620001ca565b5b60006200023384828501620001f3565b91505092915050565b600081519050919050565b7f4e487b7100000000000000000000000000000000000000000000000000000000600052604160045260246000fd5b7f4e487b7100000000000000000000000000000000000000000000000000000000600052602260045260246000fd5b60006002820490506001821680620002be57607f821691505b602082108103620002d457620002d362000276565b5b50919050565b60008190508160005260206000209050919050565b60006020601f8301049050919050565b600082821b905092915050565b6000600883026200033e7fffffffffffffffffffffffffffffffffffffffffffffffffffffffffffffffff82620002ff565b6200034a8683620002ff565b95508019841693508086168417925050509392505050565b6000819050919050565b60006200038d620003876200038184620001cf565b62000362565b620001cf565b9050919050565b6000819050919050565b620003a9836200036c565b620003c1620003b88262000394565b8484546200030c565b825550505050565b600090565b620003d8620003c9565b620003e58184846200039e565b505050565b5b818110156200040d5762000401600082620003ce565b600181019050620003eb565b5050565b601f8211156200045c576200042681620002da565b6200043184620002ef565b8101602085101562000441578190505b620004596200045085620002ef565b830182620003ea565b50505b505050565b600082821c905092915050565b6000620004816000198460080262000461565b1980831691505092915050565b60006200049c83836200046e565b9150826002028217905092915050565b620004b7826200023c565b67ffffffffffffffff811115620004d357620004d262000247565b5b620004df8254620002a5565b620004ec82828562000411565b600060209050601f8311600181146200052457600084156200050f578287015190505b6200051b85826200048e565b8655506200058b565b601f1984166200053486620002da565b60005b828110156200055e5784890151825560018201915060208501945060208101905062000537565b868310156200057e57848901516200057a601f8916826200046e565b8355505b6001600288020188555050505b505050505050565b6163cb80620005a36000396000f3fe6080604052600436106101815760003560e01c8063835e489f116100d1578063b88d4fde1161008a578063e985e9c511610064578063e985e9c514610585578063ead6d0dd146105c2578063f2fde38b146105eb578063f8749a581461061457610181565b8063b88d4fde146104f6578063c87b56dd1461051f578063e11523431461055c57610181565b8063835e489f146104075780638627df46146104305780638da5cb5b1461044c57806395d89b4114610477578063a22cb465146104a2578063b69ef8a8146104cb57610181565b806323b872dd1161013e57806342842e0e1161011857806342842e0e1461034d5780636352211e1461037657806370a08231146103b3578063715018a6146103f057610181565b806323b872dd146102ce5780633548124b146102f7578063404aa8f91461032257610181565b806301ffc9a71461018657806306fdde03146101c3578063071843aa146101ee578063081812fc1461022b578063095ea7b31461026857806314f2979f14610291575b600080fd5b34801561019257600080fd5b506101ad60048036038101906101a89190614013565b61063d565b6040516101ba919061405b565b60405180910390f35b3480156101cf57600080fd5b506101d861071f565b6040516101e59190614106565b60405180910390f35b3480156101fa57600080fd5b506102156004803603810190610210919061415e565b6107b1565b604051610222919061439a565b60405180910390f35b34801561023757600080fd5b50610252600480360381019061024d919061415e565b610aa7565b60405161025f91906143cb565b60405180910390f35b34801561027457600080fd5b5061028f600480360381019061028a9190614412565b610aed565b005b34801561029d57600080fd5b506102b860048036038101906102b3919061415e565b610c04565b6040516102c5919061458f565b60405180910390f35b3480156102da57600080fd5b506102f560048036038101906102f091906145b1565b610d2a565b005b34801561030357600080fd5b5061030c610d8a565b604051610319919061482c565b60405180910390f35b34801561032e57600080fd5b5061033761128e565b604051610344919061482c565b60405180910390f35b34801561035957600080fd5b50610374600480360381019061036f91906145b1565b6116b4565b005b34801561038257600080fd5b5061039d6004803603810190610398919061415e565b6116d4565b6040516103aa91906143cb565b60405180910390f35b3480156103bf57600080fd5b506103da60048036038101906103d5919061484e565b61175a565b6040516103e7919061488a565b60405180910390f35b3480156103fc57600080fd5b50610405611811565b005b34801561041357600080fd5b5061042e600480360381019061042991906149da565b611825565b005b61044a60048036038101906104459190614ad0565b611c66565b005b34801561045857600080fd5b50610461611fda565b60405161046e91906143cb565b60405180910390f35b34801561048357600080fd5b5061048c612003565b6040516104999190614106565b60405180910390f35b3480156104ae57600080fd5b506104c960048036038101906104c49190614b3c565b612095565b005b3480156104d757600080fd5b506104e06120ab565b6040516104ed919061488a565b60405180910390f35b34801561050257600080fd5b5061051d60048036038101906105189190614c1d565b6120b1565b005b34801561052b57600080fd5b506105466004803603810190610541919061415e565b612113565b6040516105539190614106565b60405180910390f35b34801561056857600080fd5b50610583600480360381019061057e919061415e565b61217b565b005b34801561059157600080fd5b506105ac60048036038101906105a79190614ca0565b6124ca565b6040516105b9919061405b565b60405180910390f35b3480156105ce57600080fd5b506105e960048036038101906105e49190614ce0565b61255e565b005b3480156105f757600080fd5b50610612600480360381019061060d919061484e565b61291b565b005b34801561062057600080fd5b5061063b6004803603810190610636919061415e565b61299e565b005b60007f80ac58cd000000000000000000000000000000000000000000000000000000007bffffffffffffffffffffffffffffffffffffffffffffffffffffffff1916827bffffffffffffffffffffffffffffffffffffffffffffffffffffffff1916148061070857507f5b5e139f000000000000000000000000000000000000000000000000000000007bffffffffffffffffffffffffffffffffffffffffffffffffffffffff1916827bffffffffffffffffffffffffffffffffffffffffffffffffffffffff1916145b80610718575061071782612c85565b5b9050919050565b60606002805461072e90614e19565b80601f016020809104026020016040519081016040528092919081815260200182805461075a90614e19565b80156107a75780601f1061077c576101008083540402835291602001916107a7565b820191906000526020600020905b81548152906001019060200180831161078a57829003601f168201915b5050505050905090565b6107b9613eb5565b600c600083815260200190815260200160002060405180610200016040529081600082015481526020016001820180546107f290614e19565b80601f016020809104026020016040519081016040528092919081815260200182805461081e90614e19565b801561086b5780601f106108405761010080835404028352916020019161086b565b820191906000526020600020905b81548152906001019060200180831161084e57829003601f168201915b5050505050815260200160028201805461088490614e19565b80601f01602080910402602001604051908101604052809291908181526020018280546108b090614e19565b80156108fd5780601f106108d2576101008083540402835291602001916108fd565b820191906000526020600020905b8154815290600101906020018083116108e057829003601f168201915b5050505050815260200160038201805461091690614e19565b80601f016020809104026020016040519081016040528092919081815260200182805461094290614e19565b801561098f5780601f106109645761010080835404028352916020019161098f565b820191906000526020600020905b81548152906001019060200180831161097257829003601f168201915b505050505081526020016004820160009054906101000a900473ffffffffffffffffffffffffffffffffffffffff1673ffffffffffffffffffffffffffffffffffffffff1673ffffffffffffffffffffffffffffffffffffffff1681526020016005820154815260200160068201548152602001600782015481526020016008820154815260200160098201548152602001600a8201548152602001600b8201548152602001600c820160009054906101000a900460ff16151515158152602001600c820160019054906101000a900460ff16151515158152602001600c820160029054906101000a900460ff16151515158152602001600c820160039054906101000a900460ff1615151515815250509050919050565b6000610ab282612cef565b6006600083815260200190815260200160002060009054906101000a900473ffffffffffffffffffffffffffffffffffffffff169050919050565b6000610af8826116d4565b90508073ffffffffffffffffffffffffffffffffffffffff168373ffffffffffffffffffffffffffffffffffffffff1603610b68576040517f08c379a0000000000000000000000000000000000000000000000000000000008152600401610b5f90614ebc565b60405180910390fd5b8073ffffffffffffffffffffffffffffffffffffffff16610b87612d3a565b73ffffffffffffffffffffffffffffffffffffffff161480610bb65750610bb581610bb0612d3a565b6124ca565b5b610bf5576040517f08c379a0000000000000000000000000000000000000000000000000000000008152600401610bec90614f4e565b60405180910390fd5b610bff8383612d42565b505050565b6060600d6000838152602001908152602001600020805480602002602001604051908101604052809291908181526020016000905b82821015610d1f57838290600052602060002090600602016040518060e001604052908160008201548152602001600182015481526020016002820160009054906101000a900473ffffffffffffffffffffffffffffffffffffffff1673ffffffffffffffffffffffffffffffffffffffff1673ffffffffffffffffffffffffffffffffffffffff16815260200160038201548152602001600482015481526020016005820160009054906101000a900460ff161515151581526020016005820160019054906101000a900460ff16151515158152505081526020019060010190610c39565b505050509050919050565b610d3b610d35612d3a565b82612dfb565b610d7a576040517f08c379a0000000000000000000000000000000000000000000000000000000008152600401610d7190614fe0565b60405180910390fd5b610d85838383612e90565b505050565b6060600080600190505b610d9e6008613189565b8111610e5d57600c6000828152602001908152602001600020600c0160009054906101000a900460ff16158015610e3657503373ffffffffffffffffffffffffffffffffffffffff16600c600083815260200190815260200160002060040160009054906101000a900473ffffffffffffffffffffffffffffffffffffffff1673ffffffffffffffffffffffffffffffffffffffff16145b15610e4a578180610e469061502f565b9250505b8080610e559061502f565b915050610d94565b508067ffffffffffffffff811115610e7857610e776148af565b5b604051908082528060200260200182016040528015610eb157816020015b610e9e613eb5565b815260200190600190039081610e965790505b509150600080600190505b610ec66008613189565b811161128857600c6000828152602001908152602001600020600c0160009054906101000a900460ff16158015610f5e57503373ffffffffffffffffffffffffffffffffffffffff16600c600083815260200190815260200160002060040160009054906101000a900473ffffffffffffffffffffffffffffffffffffffff1673ffffffffffffffffffffffffffffffffffffffff16145b1561127557600c60008281526020019081526020016000206040518061020001604052908160008201548152602001600182018054610f9c90614e19565b80601f0160208091040260200160405190810160405280929190818152602001828054610fc890614e19565b80156110155780601f10610fea57610100808354040283529160200191611015565b820191906000526020600020905b815481529060010190602001808311610ff857829003601f168201915b5050505050815260200160028201805461102e90614e19565b80601f016020809104026020016040519081016040528092919081815260200182805461105a90614e19565b80156110a75780601f1061107c576101008083540402835291602001916110a7565b820191906000526020600020905b81548152906001019060200180831161108a57829003601f168201915b505050505081526020016003820180546110c090614e19565b80601f01602080910402602001604051908101604052809291908181526020018280546110ec90614e19565b80156111395780601f1061110e57610100808354040283529160200191611139565b820191906000526020600020905b81548152906001019060200180831161111c57829003601f168201915b505050505081526020016004820160009054906101000a900473ffffffffffffffffffffffffffffffffffffffff1673ffffffffffffffffffffffffffffffffffffffff1673ffffffffffffffffffffffffffffffffffffffff1681526020016005820154815260200160068201548152602001600782015481526020016008820154815260200160098201548152602001600a8201548152602001600b8201548152602001600c820160009054906101000a900460ff16151515158152602001600c820160019054906101000a900460ff16151515158152602001600c820160029054906101000a900460ff16151515158152602001600c820160039054906101000a900460ff1615151515815250508483806112569061502f565b94508151811061126957611268615077565b5b60200260200101819052505b80806112809061502f565b915050610ebc565b50505090565b6060600080600190505b6112a26008613189565b81116112f257600c6000828152602001908152602001600020600c0160009054906101000a900460ff166112df5781806112db9061502f565b9250505b80806112ea9061502f565b915050611298565b508067ffffffffffffffff81111561130d5761130c6148af565b5b60405190808252806020026020018201604052801561134657816020015b611333613eb5565b81526020019060019003908161132b5790505b509150600080600190505b61135b6008613189565b81116116ae57600c6000828152602001908152602001600020600c0160009054906101000a900460ff1661169b57600c600082815260200190815260200160002060405180610200016040529081600082015481526020016001820180546113c290614e19565b80601f01602080910402602001604051908101604052809291908181526020018280546113ee90614e19565b801561143b5780601f106114105761010080835404028352916020019161143b565b820191906000526020600020905b81548152906001019060200180831161141e57829003601f168201915b5050505050815260200160028201805461145490614e19565b80601f016020809104026020016040519081016040528092919081815260200182805461148090614e19565b80156114cd5780601f106114a2576101008083540402835291602001916114cd565b820191906000526020600020905b8154815290600101906020018083116114b057829003601f168201915b505050505081526020016003820180546114e690614e19565b80601f016020809104026020016040519081016040528092919081815260200182805461151290614e19565b801561155f5780601f106115345761010080835404028352916020019161155f565b820191906000526020600020905b81548152906001019060200180831161154257829003601f168201915b505050505081526020016004820160009054906101000a900473ffffffffffffffffffffffffffffffffffffffff1673ffffffffffffffffffffffffffffffffffffffff1673ffffffffffffffffffffffffffffffffffffffff1681526020016005820154815260200160068201548152602001600782015481526020016008820154815260200160098201548152602001600a8201548152602001600b8201548152602001600c820160009054906101000a900460ff16151515158152602001600c820160019054906101000a900460ff16151515158152602001600c820160029054906101000a900460ff16151515158152602001600c820160039054906101000a900460ff16151515158152505084838061167c9061502f565b94508151811061168f5761168e615077565b5b60200260200101819052505b80806116a69061502f565b915050611351565b50505090565b6116cf838383604051806020016040528060008152506120b1565b505050565b6000806116e083613197565b9050600073ffffffffffffffffffffffffffffffffffffffff168173ffffffffffffffffffffffffffffffffffffffff1603611751576040517f08c379a0000000000000000000000000000000000000000000000000000000008152600401611748906150f2565b60405180910390fd5b80915050919050565b60008073ffffffffffffffffffffffffffffffffffffffff168273ffffffffffffffffffffffffffffffffffffffff16036117ca576040517f08c379a00000000000000000000000000000000000000000000000000000000081526004016117c190615184565b60405180910390fd5b600560008373ffffffffffffffffffffffffffffffffffffffff1673ffffffffffffffffffffffffffffffffffffffff168152602001908152602001600020549050919050565b6118196131d4565b6118236000613252565b565b60008311611868576040517f08c379a000000000000000000000000000000000000000000000000000000000815260040161185f90615216565b60405180910390fd5b600084116118ab576040517f08c379a00000000000000000000000000000000000000000000000000000000081526004016118a2906152a8565b60405180910390fd5b60008751116118ef576040517f08c379a00000000000000000000000000000000000000000000000000000000081526004016118e690615314565b60405180910390fd5b6000865111611933576040517f08c379a000000000000000000000000000000000000000000000000000000000815260040161192a90615380565b60405180910390fd5b6000855111611977576040517f08c379a000000000000000000000000000000000000000000000000000000000815260040161196e906153ec565b60405180910390fd5b600082116119ba576040517f08c379a00000000000000000000000000000000000000000000000000000000081526004016119b19061547e565b60405180910390fd5b8181116119fc576040517f08c379a00000000000000000000000000000000000000000000000000000000081526004016119f390615510565b60405180910390fd5b611a066008613316565b611a0e613eb5565b611a186008613189565b816000018181525050878160200181905250868160600181905250858160400181905250848160e0018181525050838160c00181815250508281610120018181525050818161014001818152505033816080019073ffffffffffffffffffffffffffffffffffffffff16908173ffffffffffffffffffffffffffffffffffffffff1681525050611aa661332c565b816101600181815250506001600e60008360000151815260200190815260200160002060006101000a81548160ff02191690831515021790555080600c600083600001518152602001908152602001600020600082015181600001556020820151816001019081611b1791906156dc565b506040820151816002019081611b2d91906156dc565b506060820151816003019081611b4391906156dc565b5060808201518160040160006101000a81548173ffffffffffffffffffffffffffffffffffffffff021916908373ffffffffffffffffffffffffffffffffffffffff16021790555060a0820151816005015560c0820151816006015560e082015181600701556101008201518160080155610120820151816009015561014082015181600a015561016082015181600b015561018082015181600c0160006101000a81548160ff0219169083151502179055506101a082015181600c0160016101000a81548160ff0219169083151502179055506101c082015181600c0160026101000a81548160ff0219169083151502179055506101e082015181600c0160036101000a81548160ff0219169083151502179055509050505050505050505050565b600e600083815260200190815260200160002060009054906101000a900460ff16611cc6576040517f08c379a0000000000000000000000000000000000000000000000000000000008152600401611cbd906157fa565b60405180910390fd5b80600c600084815260200190815260200160002060060154611ce8919061581a565b341015611d2a576040517f08c379a0000000000000000000000000000000000000000000000000000000008152600401611d21906158a8565b60405180910390fd5b60008111611d6d576040517f08c379a0000000000000000000000000000000000000000000000000000000008152600401611d649061593a565b60405180910390fd5b600c60008381526020019081526020016000206007015481600c600085815260200190815260200160002060080154611da6919061595a565b1115611de7576040517f08c379a0000000000000000000000000000000000000000000000000000000008152600401611dde906159da565b60405180910390fd5b60005b81811015611f8f57611dfa613f50565b600d6000858152602001908152602001600020805490508160000181815250508381602001818152505033816040019073ffffffffffffffffffffffffffffffffffffffff16908173ffffffffffffffffffffffffffffffffffffffff1681525050600c600085815260200190815260200160002060060154816060018181525050611e8461332c565b816080018181525050600d6000858152602001908152602001600020819080600181540180825580915050600190039060005260206000209060060201600090919091909150600082015181600001556020820151816001015560408201518160020160006101000a81548173ffffffffffffffffffffffffffffffffffffffff021916908373ffffffffffffffffffffffffffffffffffffffff160217905550606082015181600301556080820151816004015560a08201518160050160006101000a81548160ff02191690831515021790555060c08201518160050160016101000a81548160ff0219169083151502179055505050508080611f879061502f565b915050611dea565b5080600c60008481526020019081526020016000206008016000828254611fb6919061595a565b9250508190555034600a6000828254611fcf919061595a565b925050819055505050565b60008060009054906101000a900473ffffffffffffffffffffffffffffffffffffffff16905090565b60606003805461201290614e19565b80601f016020809104026020016040519081016040528092919081815260200182805461203e90614e19565b801561208b5780601f106120605761010080835404028352916020019161208b565b820191906000526020600020905b81548152906001019060200180831161206e57829003601f168201915b5050505050905090565b6120a76120a0612d3a565b838361334c565b5050565b600a5481565b6120c26120bc612d3a565b83612dfb565b612101576040517f08c379a00000000000000000000000000000000000000000000000000000000081526004016120f890614fe0565b60405180910390fd5b61210d848484846134b8565b50505050565b606061211e82612cef565b6000612128613514565b905060008151116121485760405180602001604052806000815250612173565b806121528461352b565b604051602001612163929190615a36565b6040516020818303038152906040525b915050919050565b600e600082815260200190815260200160002060009054906101000a900460ff166121db576040517f08c379a00000000000000000000000000000000000000000000000000000000081526004016121d2906157fa565b60405180910390fd5b600c6000828152602001908152602001600020600c0160019054906101000a900460ff161561223f576040517f08c379a000000000000000000000000000000000000000000000000000000000815260040161223690615aa6565b60405180910390fd5b600c6000828152602001908152602001600020600a015461225e61332c565b1161229e576040517f08c379a000000000000000000000000000000000000000000000000000000000815260040161229590615b12565b60405180910390fd5b3373ffffffffffffffffffffffffffffffffffffffff16600c600083815260200190815260200160002060040160009054906101000a900473ffffffffffffffffffffffffffffffffffffffff1673ffffffffffffffffffffffffffffffffffffffff1614806123405750612311611fda565b73ffffffffffffffffffffffffffffffffffffffff163373ffffffffffffffffffffffffffffffffffffffff16145b61237f576040517f08c379a000000000000000000000000000000000000000000000000000000000815260040161237690615b7e565b60405180910390fd5b612388816135f9565b6123c7576040517f08c379a00000000000000000000000000000000000000000000000000000000081526004016123be90615bea565b60405180910390fd5b6000600c600083815260200190815260200160002060080154600c600084815260200190815260200160002060060154612401919061581a565b905060006064600b5483612415919061581a565b61241f9190615c39565b905061246c600c600085815260200190815260200160002060040160009054906101000a900473ffffffffffffffffffffffffffffffffffffffff1682846124679190615c6a565b61372d565b61247d612477611fda565b8261372d565b6001600c6000858152602001908152602001600020600c0160016101000a81548160ff02191690831515021790555081600a60008282546124be9190615c6a565b92505081905550505050565b6000600760008473ffffffffffffffffffffffffffffffffffffffff1673ffffffffffffffffffffffffffffffffffffffff16815260200190815260200160002060008373ffffffffffffffffffffffffffffffffffffffff1673ffffffffffffffffffffffffffffffffffffffff16815260200190815260200160002060009054906101000a900460ff16905092915050565b600e600089815260200190815260200160002060009054906101000a900460ff166125be576040517f08c379a00000000000000000000000000000000000000000000000000000000081526004016125b5906157fa565b60405180910390fd5b3373ffffffffffffffffffffffffffffffffffffffff16600c60008a815260200190815260200160002060040160009054906101000a900473ffffffffffffffffffffffffffffffffffffffff1673ffffffffffffffffffffffffffffffffffffffff1614612662576040517f08c379a000000000000000000000000000000000000000000000000000000000815260040161265990615b7e565b60405180910390fd5b600083116126a5576040517f08c379a000000000000000000000000000000000000000000000000000000000815260040161269c90615216565b60405180910390fd5b600084116126e8576040517f08c379a00000000000000000000000000000000000000000000000000000000081526004016126df90615d10565b60405180910390fd5b600087511161272c576040517f08c379a000000000000000000000000000000000000000000000000000000000815260040161272390615314565b60405180910390fd5b6000865111612770576040517f08c379a000000000000000000000000000000000000000000000000000000000815260040161276790615380565b60405180910390fd5b60008551116127b4576040517f08c379a00000000000000000000000000000000000000000000000000000000081526004016127ab906153ec565b60405180910390fd5b600082116127f7576040517f08c379a00000000000000000000000000000000000000000000000000000000081526004016127ee9061547e565b60405180910390fd5b818111612839576040517f08c379a000000000000000000000000000000000000000000000000000000000815260040161283090615510565b60405180910390fd5b86600c60008a8152602001908152602001600020600101908161285c91906156dc565b5085600c60008a8152602001908152602001600020600301908161288091906156dc565b5084600c60008a815260200190815260200160002060020190816128a491906156dc565b5083600c60008a81526020019081526020016000206007018190555082600c60008a81526020019081526020016000206006018190555081600c60008a81526020019081526020016000206009018190555080600c60008a8152602001908152602001600020600a01819055505050505050505050565b6129236131d4565b600073ffffffffffffffffffffffffffffffffffffffff168173ffffffffffffffffffffffffffffffffffffffff1603612992576040517f08c379a000000000000000000000000000000000000000000000000000000000815260040161298990615da2565b60405180910390fd5b61299b81613252565b50565b600e600082815260200190815260200160002060009054906101000a900460ff166129fe576040517f08c379a00000000000000000000000000000000000000000000000000000000081526004016129f5906157fa565b60405180910390fd5b3373ffffffffffffffffffffffffffffffffffffffff16600c600083815260200190815260200160002060040160009054906101000a900473ffffffffffffffffffffffffffffffffffffffff1673ffffffffffffffffffffffffffffffffffffffff161480612aa05750612a71611fda565b73ffffffffffffffffffffffffffffffffffffffff163373ffffffffffffffffffffffffffffffffffffffff16145b612adf576040517f08c379a0000000000000000000000000000000000000000000000000000000008152600401612ad690615b7e565b60405180910390fd5b600c6000828152602001908152602001600020600c0160019054906101000a900460ff1615612b43576040517f08c379a0000000000000000000000000000000000000000000000000000000008152600401612b3a90615aa6565b60405180910390fd5b600c6000828152602001908152602001600020600c0160029054906101000a900460ff1615612ba7576040517f08c379a0000000000000000000000000000000000000000000000000000000008152600401612b9e90615e0e565b60405180910390fd5b600c6000828152602001908152602001600020600c0160009054906101000a900460ff1615612c0b576040517f08c379a0000000000000000000000000000000000000000000000000000000008152600401612c0290615e7a565b60405180910390fd5b612c14816137a8565b612c53576040517f08c379a0000000000000000000000000000000000000000000000000000000008152600401612c4a90615ee6565b60405180910390fd5b6001600c6000838152602001908152602001600020600c0160006101000a81548160ff02191690831515021790555050565b60007f01ffc9a7000000000000000000000000000000000000000000000000000000007bffffffffffffffffffffffffffffffffffffffffffffffffffffffff1916827bffffffffffffffffffffffffffffffffffffffffffffffffffffffff1916149050919050565b612cf88161394e565b612d37576040517f08c379a0000000000000000000000000000000000000000000000000000000008152600401612d2e906150f2565b60405180910390fd5b50565b600033905090565b816006600083815260200190815260200160002060006101000a81548173ffffffffffffffffffffffffffffffffffffffff021916908373ffffffffffffffffffffffffffffffffffffffff160217905550808273ffffffffffffffffffffffffffffffffffffffff16612db5836116d4565b73ffffffffffffffffffffffffffffffffffffffff167f8c5be1e5ebec7d5bd14f71427d1e84f3dd0314c0f7b2291e5b200ac8c7c3b92560405160405180910390a45050565b600080612e07836116d4565b90508073ffffffffffffffffffffffffffffffffffffffff168473ffffffffffffffffffffffffffffffffffffffff161480612e495750612e4881856124ca565b5b80612e8757508373ffffffffffffffffffffffffffffffffffffffff16612e6f84610aa7565b73ffffffffffffffffffffffffffffffffffffffff16145b91505092915050565b8273ffffffffffffffffffffffffffffffffffffffff16612eb0826116d4565b73ffffffffffffffffffffffffffffffffffffffff1614612f06576040517f08c379a0000000000000000000000000000000000000000000000000000000008152600401612efd90615f78565b60405180910390fd5b600073ffffffffffffffffffffffffffffffffffffffff168273ffffffffffffffffffffffffffffffffffffffff1603612f75576040517f08c379a0000000000000000000000000000000000000000000000000000000008152600401612f6c9061600a565b60405180910390fd5b612f82838383600161398f565b8273ffffffffffffffffffffffffffffffffffffffff16612fa2826116d4565b73ffffffffffffffffffffffffffffffffffffffff1614612ff8576040517f08c379a0000000000000000000000000000000000000000000000000000000008152600401612fef90615f78565b60405180910390fd5b6006600082815260200190815260200160002060006101000a81549073ffffffffffffffffffffffffffffffffffffffff02191690556001600560008573ffffffffffffffffffffffffffffffffffffffff1673ffffffffffffffffffffffffffffffffffffffff168152602001908152602001600020600082825403925050819055506001600560008473ffffffffffffffffffffffffffffffffffffffff1673ffffffffffffffffffffffffffffffffffffffff16815260200190815260200160002060008282540192505081905550816004600083815260200190815260200160002060006101000a81548173ffffffffffffffffffffffffffffffffffffffff021916908373ffffffffffffffffffffffffffffffffffffffff160217905550808273ffffffffffffffffffffffffffffffffffffffff168473ffffffffffffffffffffffffffffffffffffffff167fddf252ad1be2c89b69c2b068fc378daa952ba7f163c4a11628f55a4df523b3ef60405160405180910390a46131848383836001613995565b505050565b600081600001549050919050565b60006004600083815260200190815260200160002060009054906101000a900473ffffffffffffffffffffffffffffffffffffffff169050919050565b6131dc612d3a565b73ffffffffffffffffffffffffffffffffffffffff166131fa611fda565b73ffffffffffffffffffffffffffffffffffffffff1614613250576040517f08c379a000000000000000000000000000000000000000000000000000000000815260040161324790616076565b60405180910390fd5b565b60008060009054906101000a900473ffffffffffffffffffffffffffffffffffffffff169050816000806101000a81548173ffffffffffffffffffffffffffffffffffffffff021916908373ffffffffffffffffffffffffffffffffffffffff1602179055508173ffffffffffffffffffffffffffffffffffffffff168173ffffffffffffffffffffffffffffffffffffffff167f8be0079c531659141344cd1fd0a4f28419497f9722a3daafe3b4186f6b6457e060405160405180910390a35050565b6001816000016000828254019250508190555050565b60006103e8804261333d919061581a565b613347919061595a565b905090565b8173ffffffffffffffffffffffffffffffffffffffff168373ffffffffffffffffffffffffffffffffffffffff16036133ba576040517f08c379a00000000000000000000000000000000000000000000000000000000081526004016133b1906160e2565b60405180910390fd5b80600760008573ffffffffffffffffffffffffffffffffffffffff1673ffffffffffffffffffffffffffffffffffffffff16815260200190815260200160002060008473ffffffffffffffffffffffffffffffffffffffff1673ffffffffffffffffffffffffffffffffffffffff16815260200190815260200160002060006101000a81548160ff0219169083151502179055508173ffffffffffffffffffffffffffffffffffffffff168373ffffffffffffffffffffffffffffffffffffffff167f17307eab39ab6107e8899845ad3d59bd9653f200f220920489ca2b5937696c31836040516134ab919061405b565b60405180910390a3505050565b6134c3848484612e90565b6134cf8484848461399b565b61350e576040517f08c379a000000000000000000000000000000000000000000000000000000000815260040161350590616174565b60405180910390fd5b50505050565b606060405180602001604052806000815250905090565b60606000600161353a84613b22565b01905060008167ffffffffffffffff811115613559576135586148af565b5b6040519080825280601f01601f19166020018201604052801561358b5781602001600182028036833780820191505090505b509050600082602001820190505b6001156135ee578080600190039150507f3031323334353637383961626364656600000000000000000000000000000000600a86061a8153600a85816135e2576135e1615c0a565b5b04945060008503613599575b819350505050919050565b600080600090505b600d6000848152602001908152602001600020805490508110156136f4576136296009613316565b6001600d600085815260200190815260200160002082815481106136505761364f615077565b5b906000526020600020906006020160050160016101000a81548160ff0219169083151502179055506136e1600d600085815260200190815260200160002082815481106136a05761369f615077565b5b906000526020600020906006020160020160009054906101000a900473ffffffffffffffffffffffffffffffffffffffff166136dc6009613189565b613c75565b80806136ec9061502f565b915050613601565b506001600c6000848152602001908152602001600020600c0160036101000a81548160ff02191690831515021790555060019050919050565b60008273ffffffffffffffffffffffffffffffffffffffff1682604051613753906161c5565b60006040518083038185875af1925050503d8060008114613790576040519150601f19603f3d011682016040523d82523d6000602084013e613795565b606091505b50509050806137a357600080fd5b505050565b600080600090505b600d600084815260200190815260200160002080549050811015613915576001600d600085815260200190815260200160002082815481106137f5576137f4615077565b5b906000526020600020906006020160050160006101000a81548160ff0219169083151502179055506138b3600d6000858152602001908152602001600020828154811061384557613844615077565b5b906000526020600020906006020160020160009054906101000a900473ffffffffffffffffffffffffffffffffffffffff16600d6000868152602001908152602001600020838154811061389c5761389b615077565b5b90600052602060002090600602016003015461372d565b600d600084815260200190815260200160002081815481106138d8576138d7615077565b5b906000526020600020906006020160030154600a60008282546138fb9190615c6a565b92505081905550808061390d9061502f565b9150506137b0565b506001600c6000848152602001908152602001600020600c0160026101000a81548160ff02191690831515021790555060019050919050565b60008073ffffffffffffffffffffffffffffffffffffffff1661397083613197565b73ffffffffffffffffffffffffffffffffffffffff1614159050919050565b50505050565b50505050565b60006139bc8473ffffffffffffffffffffffffffffffffffffffff16613e92565b15613b15578373ffffffffffffffffffffffffffffffffffffffff1663150b7a026139e5612d3a565b8786866040518563ffffffff1660e01b8152600401613a07949392919061622f565b6020604051808303816000875af1925050508015613a4357506040513d601f19601f82011682018060405250810190613a409190616290565b60015b613ac5573d8060008114613a73576040519150601f19603f3d011682016040523d82523d6000602084013e613a78565b606091505b506000815103613abd576040517f08c379a0000000000000000000000000000000000000000000000000000000008152600401613ab490616174565b60405180910390fd5b805181602001fd5b63150b7a0260e01b7bffffffffffffffffffffffffffffffffffffffffffffffffffffffff1916817bffffffffffffffffffffffffffffffffffffffffffffffffffffffff191614915050613b1a565b600190505b949350505050565b600080600090507a184f03e93ff9f4daa797ed6e38ed64bf6a1f0100000000000000008310613b80577a184f03e93ff9f4daa797ed6e38ed64bf6a1f0100000000000000008381613b7657613b75615c0a565b5b0492506040810190505b6d04ee2d6d415b85acef81000000008310613bbd576d04ee2d6d415b85acef81000000008381613bb357613bb2615c0a565b5b0492506020810190505b662386f26fc100008310613bec57662386f26fc100008381613be257613be1615c0a565b5b0492506010810190505b6305f5e1008310613c15576305f5e1008381613c0b57613c0a615c0a565b5b0492506008810190505b6127108310613c3a576127108381613c3057613c2f615c0a565b5b0492506004810190505b60648310613c5d5760648381613c5357613c52615c0a565b5b0492506002810190505b600a8310613c6c576001810190505b80915050919050565b600073ffffffffffffffffffffffffffffffffffffffff168273ffffffffffffffffffffffffffffffffffffffff1603613ce4576040517f08c379a0000000000000000000000000000000000000000000000000000000008152600401613cdb90616309565b60405180910390fd5b613ced8161394e565b15613d2d576040517f08c379a0000000000000000000000000000000000000000000000000000000008152600401613d2490616375565b60405180910390fd5b613d3b60008383600161398f565b613d448161394e565b15613d84576040517f08c379a0000000000000000000000000000000000000000000000000000000008152600401613d7b90616375565b60405180910390fd5b6001600560008473ffffffffffffffffffffffffffffffffffffffff1673ffffffffffffffffffffffffffffffffffffffff16815260200190815260200160002060008282540192505081905550816004600083815260200190815260200160002060006101000a81548173ffffffffffffffffffffffffffffffffffffffff021916908373ffffffffffffffffffffffffffffffffffffffff160217905550808273ffffffffffffffffffffffffffffffffffffffff16600073ffffffffffffffffffffffffffffffffffffffff167fddf252ad1be2c89b69c2b068fc378daa952ba7f163c4a11628f55a4df523b3ef60405160405180910390a4613e8e600083836001613995565b5050565b6000808273ffffffffffffffffffffffffffffffffffffffff163b119050919050565b60405180610200016040528060008152602001606081526020016060815260200160608152602001600073ffffffffffffffffffffffffffffffffffffffff168152602001600081526020016000815260200160008152602001600081526020016000815260200160008152602001600081526020016000151581526020016000151581526020016000151581526020016000151581525090565b6040518060e001604052806000815260200160008152602001600073ffffffffffffffffffffffffffffffffffffffff16815260200160008152602001600081526020016000151581526020016000151581525090565b6000604051905090565b600080fd5b600080fd5b60007fffffffff0000000000000000000000000000000000000000000000000000000082169050919050565b613ff081613fbb565b8114613ffb57600080fd5b50565b60008135905061400d81613fe7565b92915050565b60006020828403121561402957614028613fb1565b5b600061403784828501613ffe565b91505092915050565b60008115159050919050565b61405581614040565b82525050565b6000602082019050614070600083018461404c565b92915050565b600081519050919050565b600082825260208201905092915050565b60005b838110156140b0578082015181840152602081019050614095565b60008484015250505050565b6000601f19601f8301169050919050565b60006140d882614076565b6140e28185614081565b93506140f2818560208601614092565b6140fb816140bc565b840191505092915050565b6000602082019050818103600083015261412081846140cd565b905092915050565b6000819050919050565b61413b81614128565b811461414657600080fd5b50565b60008135905061415881614132565b92915050565b60006020828403121561417457614173613fb1565b5b600061418284828501614149565b91505092915050565b61419481614128565b82525050565b600082825260208201905092915050565b60006141b682614076565b6141c0818561419a565b93506141d0818560208601614092565b6141d9816140bc565b840191505092915050565b600073ffffffffffffffffffffffffffffffffffffffff82169050919050565b600061420f826141e4565b9050919050565b61421f81614204565b82525050565b61422e81614040565b82525050565b60006102008301600083015161424d600086018261418b565b506020830151848203602086015261426582826141ab565b9150506040830151848203604086015261427f82826141ab565b9150506060830151848203606086015261429982826141ab565b91505060808301516142ae6080860182614216565b5060a08301516142c160a086018261418b565b5060c08301516142d460c086018261418b565b5060e08301516142e760e086018261418b565b506101008301516142fc61010086018261418b565b5061012083015161431161012086018261418b565b5061014083015161432661014086018261418b565b5061016083015161433b61016086018261418b565b50610180830151614350610180860182614225565b506101a08301516143656101a0860182614225565b506101c083015161437a6101c0860182614225565b506101e083015161438f6101e0860182614225565b508091505092915050565b600060208201905081810360008301526143b48184614234565b905092915050565b6143c581614204565b82525050565b60006020820190506143e060008301846143bc565b92915050565b6143ef81614204565b81146143fa57600080fd5b50565b60008135905061440c816143e6565b92915050565b6000806040838503121561442957614428613fb1565b5b6000614437858286016143fd565b925050602061444885828601614149565b9150509250929050565b600081519050919050565b600082825260208201905092915050565b6000819050602082019050919050565b60e082016000820151614494600085018261418b565b5060208201516144a7602085018261418b565b5060408201516144ba6040850182614216565b5060608201516144cd606085018261418b565b5060808201516144e0608085018261418b565b5060a08201516144f360a0850182614225565b5060c082015161450660c0850182614225565b50505050565b6000614518838361447e565b60e08301905092915050565b6000602082019050919050565b600061453c82614452565b614546818561445d565b93506145518361446e565b8060005b83811015614582578151614569888261450c565b975061457483614524565b925050600181019050614555565b5085935050505092915050565b600060208201905081810360008301526145a98184614531565b905092915050565b6000806000606084860312156145ca576145c9613fb1565b5b60006145d8868287016143fd565b93505060206145e9868287016143fd565b92505060406145fa86828701614149565b9150509250925092565b600081519050919050565b600082825260208201905092915050565b6000819050602082019050919050565b600061020083016000830151614649600086018261418b565b506020830151848203602086015261466182826141ab565b9150506040830151848203604086015261467b82826141ab565b9150506060830151848203606086015261469582826141ab565b91505060808301516146aa6080860182614216565b5060a08301516146bd60a086018261418b565b5060c08301516146d060c086018261418b565b5060e08301516146e360e086018261418b565b506101008301516146f861010086018261418b565b5061012083015161470d61012086018261418b565b5061014083015161472261014086018261418b565b5061016083015161473761016086018261418b565b5061018083015161474c610180860182614225565b506101a08301516147616101a0860182614225565b506101c08301516147766101c0860182614225565b506101e083015161478b6101e0860182614225565b508091505092915050565b60006147a28383614630565b905092915050565b6000602082019050919050565b60006147c282614604565b6147cc818561460f565b9350836020820285016147de85614620565b8060005b8581101561481a57848403895281516147fb8582614796565b9450614806836147aa565b925060208a019950506001810190506147e2565b50829750879550505050505092915050565b6000602082019050818103600083015261484681846147b7565b905092915050565b60006020828403121561486457614863613fb1565b5b6000614872848285016143fd565b91505092915050565b61488481614128565b82525050565b600060208201905061489f600083018461487b565b92915050565b600080fd5b600080fd5b7f4e487b7100000000000000000000000000000000000000000000000000000000600052604160045260246000fd5b6148e7826140bc565b810181811067ffffffffffffffff82111715614906576149056148af565b5b80604052505050565b6000614919613fa7565b905061492582826148de565b919050565b600067ffffffffffffffff821115614945576149446148af565b5b61494e826140bc565b9050602081019050919050565b82818337600083830152505050565b600061497d6149788461492a565b61490f565b905082815260208101848484011115614999576149986148aa565b5b6149a484828561495b565b509392505050565b600082601f8301126149c1576149c06148a5565b5b81356149d184826020860161496a565b91505092915050565b600080600080600080600060e0888a0312156149f9576149f8613fb1565b5b600088013567ffffffffffffffff811115614a1757614a16613fb6565b5b614a238a828b016149ac565b975050602088013567ffffffffffffffff811115614a4457614a43613fb6565b5b614a508a828b016149ac565b965050604088013567ffffffffffffffff811115614a7157614a70613fb6565b5b614a7d8a828b016149ac565b9550506060614a8e8a828b01614149565b9450506080614a9f8a828b01614149565b93505060a0614ab08a828b01614149565b92505060c0614ac18a828b01614149565b91505092959891949750929550565b60008060408385031215614ae757614ae6613fb1565b5b6000614af585828601614149565b9250506020614b0685828601614149565b9150509250929050565b614b1981614040565b8114614b2457600080fd5b50565b600081359050614b3681614b10565b92915050565b60008060408385031215614b5357614b52613fb1565b5b6000614b61858286016143fd565b9250506020614b7285828601614b27565b9150509250929050565b600067ffffffffffffffff821115614b9757614b966148af565b5b614ba0826140bc565b9050602081019050919050565b6000614bc0614bbb84614b7c565b61490f565b905082815260208101848484011115614bdc57614bdb6148aa565b5b614be784828561495b565b509392505050565b600082601f830112614c0457614c036148a5565b5b8135614c14848260208601614bad565b91505092915050565b60008060008060808587031215614c3757614c36613fb1565b5b6000614c45878288016143fd565b9450506020614c56878288016143fd565b9350506040614c6787828801614149565b925050606085013567ffffffffffffffff811115614c8857614c87613fb6565b5b614c9487828801614bef565b91505092959194509250565b60008060408385031215614cb757614cb6613fb1565b5b6000614cc5858286016143fd565b9250506020614cd6858286016143fd565b9150509250929050565b600080600080600080600080610100898b031215614d0157614d00613fb1565b5b6000614d0f8b828c01614149565b985050602089013567ffffffffffffffff811115614d3057614d2f613fb6565b5b614d3c8b828c016149ac565b975050604089013567ffffffffffffffff811115614d5d57614d5c613fb6565b5b614d698b828c016149ac565b965050606089013567ffffffffffffffff811115614d8a57614d89613fb6565b5b614d968b828c016149ac565b9550506080614da78b828c01614149565b94505060a0614db88b828c01614149565b93505060c0614dc98b828c01614149565b92505060e0614dda8b828c01614149565b9150509295985092959890939650565b7f4e487b7100000000000000000000000000000000000000000000000000000000600052602260045260246000fd5b60006002820490506001821680614e3157607f821691505b602082108103614e4457614e43614dea565b5b50919050565b7f4552433732313a20617070726f76616c20746f2063757272656e74206f776e6560008201527f7200000000000000000000000000000000000000000000000000000000000000602082015250565b6000614ea6602183614081565b9150614eb182614e4a565b604082019050919050565b60006020820190508181036000830152614ed581614e99565b9050919050565b7f4552433732313a20617070726f76652063616c6c6572206973206e6f7420746f60008201527f6b656e206f776e6572206f7220617070726f76656420666f7220616c6c000000602082015250565b6000614f38603d83614081565b9150614f4382614edc565b604082019050919050565b60006020820190508181036000830152614f6781614f2b565b9050919050565b7f4552433732313a2063616c6c6572206973206e6f7420746f6b656e206f776e6560008201527f72206f7220617070726f76656400000000000000000000000000000000000000602082015250565b6000614fca602d83614081565b9150614fd582614f6e565b604082019050919050565b60006020820190508181036000830152614ff981614fbd565b9050919050565b7f4e487b7100000000000000000000000000000000000000000000000000000000600052601160045260246000fd5b600061503a82614128565b91507fffffffffffffffffffffffffffffffffffffffffffffffffffffffffffffffff820361506c5761506b615000565b5b600182019050919050565b7f4e487b7100000000000000000000000000000000000000000000000000000000600052603260045260246000fd5b7f4552433732313a20696e76616c696420746f6b656e2049440000000000000000600082015250565b60006150dc601883614081565b91506150e7826150a6565b602082019050919050565b6000602082019050818103600083015261510b816150cf565b9050919050565b7f4552433732313a2061646472657373207a65726f206973206e6f74206120766160008201527f6c6964206f776e65720000000000000000000000000000000000000000000000602082015250565b600061516e602983614081565b915061517982615112565b604082019050919050565b6000602082019050818103600083015261519d81615161565b9050919050565b7f5469636b6574436f7374206d7573742062652067726561746572207468616e2060008201527f7a65726f00000000000000000000000000000000000000000000000000000000602082015250565b6000615200602483614081565b915061520b826151a4565b604082019050919050565b6000602082019050818103600083015261522f816151f3565b9050919050565b7f4361706163697479206d7573742062652067726561746572207468616e207a6560008201527f726f000000000000000000000000000000000000000000000000000000000000602082015250565b6000615292602283614081565b915061529d82615236565b604082019050919050565b600060208201905081810360008301526152c181615285565b9050919050565b7f5469746c652063616e6e6f7420626520656d7074790000000000000000000000600082015250565b60006152fe601583614081565b9150615309826152c8565b602082019050919050565b6000602082019050818103600083015261532d816152f1565b9050919050565b7f4465736372697074696f6e2063616e6e6f7420626520656d7074790000000000600082015250565b600061536a601b83614081565b915061537582615334565b602082019050919050565b600060208201905081810360008301526153998161535d565b9050919050565b7f496d61676555726c2063616e6e6f7420626520656d7074790000000000000000600082015250565b60006153d6601883614081565b91506153e1826153a0565b602082019050919050565b60006020820190508181036000830152615405816153c9565b9050919050565b7f53746172742064617465206d7573742062652067726561746572207468616e2060008201527f7a65726f00000000000000000000000000000000000000000000000000000000602082015250565b6000615468602483614081565b91506154738261540c565b604082019050919050565b600060208201905081810360008301526154978161545b565b9050919050565b7f456e642064617465206d7573742062652067726561746572207468616e20737460008201527f6172742064617465000000000000000000000000000000000000000000000000602082015250565b60006154fa602883614081565b91506155058261549e565b604082019050919050565b60006020820190508181036000830152615529816154ed565b9050919050565b60008190508160005260206000209050919050565b60006020601f8301049050919050565b600082821b905092915050565b6000600883026155927fffffffffffffffffffffffffffffffffffffffffffffffffffffffffffffffff82615555565b61559c8683615555565b95508019841693508086168417925050509392505050565b6000819050919050565b60006155d96155d46155cf84614128565b6155b4565b614128565b9050919050565b6000819050919050565b6155f3836155be565b6156076155ff826155e0565b848454615562565b825550505050565b600090565b61561c61560f565b6156278184846155ea565b505050565b5b8181101561564b57615640600082615614565b60018101905061562d565b5050565b601f8211156156905761566181615530565b61566a84615545565b81016020851015615679578190505b61568d61568585615545565b83018261562c565b50505b505050565b600082821c905092915050565b60006156b360001984600802615695565b1980831691505092915050565b60006156cc83836156a2565b9150826002028217905092915050565b6156e582614076565b67ffffffffffffffff8111156156fe576156fd6148af565b5b6157088254614e19565b61571382828561564f565b600060209050601f8311600181146157465760008415615734578287015190505b61573e85826156c0565b8655506157a6565b601f19841661575486615530565b60005b8281101561577c57848901518255600182019150602085019450602081019050615757565b868310156157995784890151615795601f8916826156a2565b8355505b6001600288020188555050505b505050505050565b7f4576656e74206e6f7420666f756e640000000000000000000000000000000000600082015250565b60006157e4600f83614081565b91506157ef826157ae565b602082019050919050565b60006020820190508181036000830152615813816157d7565b9050919050565b600061582582614128565b915061583083614128565b925082820261583e81614128565b9150828204841483151761585557615854615000565b5b5092915050565b7f496e73756666696369656e7420616d6f756e7400000000000000000000000000600082015250565b6000615892601383614081565b915061589d8261585c565b602082019050919050565b600060208201905081810360008301526158c181615885565b9050919050565b7f4e756d4f667469636b6574206d7573742062652067726561746572207468616e60008201527f207a65726f000000000000000000000000000000000000000000000000000000602082015250565b6000615924602583614081565b915061592f826158c8565b604082019050919050565b6000602082019050818103600083015261595381615917565b9050919050565b600061596582614128565b915061597083614128565b925082820190508082111561598857615987615000565b5b92915050565b7f4f7574206f662073656174696e67206361706163697479000000000000000000600082015250565b60006159c4601783614081565b91506159cf8261598e565b602082019050919050565b600060208201905081810360008301526159f3816159b7565b9050919050565b600081905092915050565b6000615a1082614076565b615a1a81856159fa565b9350615a2a818560208601614092565b80840191505092915050565b6000615a428285615a05565b9150615a4e8284615a05565b91508190509392505050565b7f4576656e7420616c72656164792070616964206f757400000000000000000000600082015250565b6000615a90601683614081565b9150615a9b82615a5a565b602082019050919050565b60006020820190508181036000830152615abf81615a83565b9050919050565b7f4576656e74207374696c6c206f6e676f696e6700000000000000000000000000600082015250565b6000615afc601383614081565b9150615b0782615ac6565b602082019050919050565b60006020820190508181036000830152615b2b81615aef565b9050919050565b7f556e617574686f72697a656420656e7469747900000000000000000000000000600082015250565b6000615b68601383614081565b9150615b7382615b32565b602082019050919050565b60006020820190508181036000830152615b9781615b5b565b9050919050565b7f4576656e74206661696c656420746f206d696e74000000000000000000000000600082015250565b6000615bd4601483614081565b9150615bdf82615b9e565b602082019050919050565b60006020820190508181036000830152615c0381615bc7565b9050919050565b7f4e487b7100000000000000000000000000000000000000000000000000000000600052601260045260246000fd5b6000615c4482614128565b9150615c4f83614128565b925082615c5f57615c5e615c0a565b5b828204905092915050565b6000615c7582614128565b9150615c8083614128565b9250828203905081811115615c9857615c97615000565b5b92915050565b7f6361706163697479206d7573742062652067726561746572207468616e207a6560008201527f726f000000000000000000000000000000000000000000000000000000000000602082015250565b6000615cfa602283614081565b9150615d0582615c9e565b604082019050919050565b60006020820190508181036000830152615d2981615ced565b9050919050565b7f4f776e61626c653a206e6577206f776e657220697320746865207a65726f206160008201527f6464726573730000000000000000000000000000000000000000000000000000602082015250565b6000615d8c602683614081565b9150615d9782615d30565b604082019050919050565b60006020820190508181036000830152615dbb81615d7f565b9050919050565b7f4576656e7420616c726561647920726566756e64656400000000000000000000600082015250565b6000615df8601683614081565b9150615e0382615dc2565b602082019050919050565b60006020820190508181036000830152615e2781615deb565b9050919050565b7f4576656e7420616c72656164792064656c657465640000000000000000000000600082015250565b6000615e64601583614081565b9150615e6f82615e2e565b602082019050919050565b60006020820190508181036000830152615e9381615e57565b9050919050565b7f4576656e74206661696c656420746f20726566756e6400000000000000000000600082015250565b6000615ed0601683614081565b9150615edb82615e9a565b602082019050919050565b60006020820190508181036000830152615eff81615ec3565b9050919050565b7f4552433732313a207472616e736665722066726f6d20696e636f72726563742060008201527f6f776e6572000000000000000000000000000000000000000000000000000000602082015250565b6000615f62602583614081565b9150615f6d82615f06565b604082019050919050565b60006020820190508181036000830152615f9181615f55565b9050919050565b7f4552433732313a207472616e7366657220746f20746865207a65726f2061646460008201527f7265737300000000000000000000000000000000000000000000000000000000602082015250565b6000615ff4602483614081565b9150615fff82615f98565b604082019050919050565b6000602082019050818103600083015261602381615fe7565b9050919050565b7f4f776e61626c653a2063616c6c6572206973206e6f7420746865206f776e6572600082015250565b6000616060602083614081565b915061606b8261602a565b602082019050919050565b6000602082019050818103600083015261608f81616053565b9050919050565b7f4552433732313a20617070726f766520746f2063616c6c657200000000000000600082015250565b60006160cc601983614081565b91506160d782616096565b602082019050919050565b600060208201905081810360008301526160fb816160bf565b9050919050565b7f4552433732313a207472616e7366657220746f206e6f6e20455243373231526560008201527f63656976657220696d706c656d656e7465720000000000000000000000000000602082015250565b600061615e603283614081565b915061616982616102565b604082019050919050565b6000602082019050818103600083015261618d81616151565b9050919050565b600081905092915050565b50565b60006161af600083616194565b91506161ba8261619f565b600082019050919050565b60006161d0826161a2565b9150819050919050565b600081519050919050565b600082825260208201905092915050565b6000616201826161da565b61620b81856161e5565b935061621b818560208601614092565b616224816140bc565b840191505092915050565b600060808201905061624460008301876143bc565b61625160208301866143bc565b61625e604083018561487b565b818103606083015261627081846161f6565b905095945050505050565b60008151905061628a81613fe7565b92915050565b6000602082840312156162a6576162a5613fb1565b5b60006162b48482850161627b565b91505092915050565b7f4552433732313a206d696e7420746f20746865207a65726f2061646472657373600082015250565b60006162f3602083614081565b91506162fe826162bd565b602082019050919050565b60006020820190508181036000830152616322816162e6565b9050919050565b7f4552433732313a20746f6b656e20616c7265616479206d696e74656400000000600082015250565b600061635f601c83614081565b915061636a82616329565b602082019050919050565b6000602082019050818103600083015261638e81616352565b905091905056fea264697066735822122071963c87a026ed8185251928db975cd28b931da6dd6a3e036304fa44e490637464736f6c63430008110033",
  "linkReferences": {},
  "deployedLinkReferences": {}
}