{
  "_format": "hh-sol-artifact-1",
  "contractName": "DappEventX",
  "sourceName": "contracts/DappEventX.sol",
  "abi": [
    {
      "inputs": [
        {
          "internalType": "uint256",
          "name": "_pct",
          "type": "uint256"
        }
      ],
      "stateMutability": "nonpayable",
      "type": "constructor"
    },
    {
      "anonymous": false,
      "inputs": [
        {
          "indexed": true,
          "internalType": "address",
          "name": "owner",
          "type": "address"
        },
        {
          "indexed": true,
          "internalType": "address",
          "name": "approved",
          "type": "address"
        },
        {
          "indexed": true,
          "internalType": "uint256",
          "name": "tokenId",
          "type": "uint256"
        }
      ],
      "name": "Approval",
      "type": "event"
    },
    {
      "anonymous": false,
      "inputs": [
        {
          "indexed": true,
          "internalType": "address",
          "name": "owner",
          "type": "address"
        },
        {
          "indexed": true,
          "internalType": "address",
          "name": "operator",
          "type": "address"
        },
        {
          "indexed": false,
          "internalType": "bool",
          "name": "approved",
          "type": "bool"
        }
      ],
      "name": "ApprovalForAll",
      "type": "event"
    },
    {
      "anonymous": false,
      "inputs": [
        {
          "indexed": true,
          "internalType": "address",
          "name": "previousOwner",
          "type": "address"
        },
        {
          "indexed": true,
          "internalType": "address",
          "name": "newOwner",
          "type": "address"
        }
      ],
      "name": "OwnershipTransferred",
      "type": "event"
    },
    {
      "anonymous": false,
      "inputs": [
        {
          "indexed": true,
          "internalType": "address",
          "name": "from",
          "type": "address"
        },
        {
          "indexed": true,
          "internalType": "address",
          "name": "to",
          "type": "address"
        },
        {
          "indexed": true,
          "internalType": "uint256",
          "name": "tokenId",
          "type": "uint256"
        }
      ],
      "name": "Transfer",
      "type": "event"
    },
    {
      "inputs": [
        {
          "internalType": "address",
          "name": "to",
          "type": "address"
        },
        {
          "internalType": "uint256",
          "name": "tokenId",
          "type": "uint256"
        }
      ],
      "name": "approve",
      "outputs": [],
      "stateMutability": "nonpayable",
      "type": "function"
    },
    {
      "inputs": [],
      "name": "balance",
      "outputs": [
        {
          "internalType": "uint256",
          "name": "",
          "type": "uint256"
        }
      ],
      "stateMutability": "view",
      "type": "function"
    },
    {
      "inputs": [
        {
          "internalType": "address",
          "name": "owner",
          "type": "address"
        }
      ],
      "name": "balanceOf",
      "outputs": [
        {
          "internalType": "uint256",
          "name": "",
          "type": "uint256"
        }
      ],
      "stateMutability": "view",
      "type": "function"
    },
    {
      "inputs": [
        {
          "internalType": "uint256",
          "name": "eventId",
          "type": "uint256"
        },
        {
          "internalType": "uint256",
          "name": "numOfticket",
          "type": "uint256"
        }
      ],
      "name": "buyTickets",
      "outputs": [],
      "stateMutability": "payable",
      "type": "function"
    },
    {
      "inputs": [
        {
          "internalType": "string",
          "name": "title",
          "type": "string"
        },
        {
          "internalType": "string",
          "name": "description",
          "type": "string"
        },
        {
          "internalType": "string",
          "name": "imageUrl",
          "type": "string"
        },
        {
          "internalType": "uint256",
          "name": "capacity",
          "type": "uint256"
        },
        {
          "internalType": "uint256",
          "name": "ticketCost",
          "type": "uint256"
        },
        {
          "internalType": "uint256",
          "name": "startsAt",
          "type": "uint256"
        },
        {
          "internalType": "uint256",
          "name": "endsAt",
          "type": "uint256"
        }
      ],
      "name": "createEvent",
      "outputs": [],
      "stateMutability": "nonpayable",
      "type": "function"
    },
    {
      "inputs": [
        {
          "internalType": "uint256",
          "name": "eventId",
          "type": "uint256"
        }
      ],
      "name": "deleteEvent",
      "outputs": [],
      "stateMutability": "nonpayable",
      "type": "function"
    },
    {
      "inputs": [
        {
          "internalType": "uint256",
          "name": "tokenId",
          "type": "uint256"
        }
      ],
      "name": "getApproved",
      "outputs": [
        {
          "internalType": "address",
          "name": "",
          "type": "address"
        }
      ],
      "stateMutability": "view",
      "type": "function"
    },
    {
      "inputs": [],
      "name": "getEvents",
      "outputs": [
        {
          "components": [
            {
              "internalType": "uint256",
              "name": "id",
              "type": "uint256"
            },
            {
              "internalType": "string",
              "name": "title",
              "type": "string"
            },
            {
              "internalType": "string",
              "name": "imageUrl",
              "type": "string"
            },
            {
              "internalType": "string",
              "name": "description",
              "type": "string"
            },
            {
              "internalType": "address",
              "name": "owner",
              "type": "address"
            },
            {
              "internalType": "uint256",
              "name": "sales",
              "type": "uint256"
            },
            {
              "internalType": "uint256",
              "name": "ticketCost",
              "type": "uint256"
            },
            {
              "internalType": "uint256",
              "name": "capacity",
              "type": "uint256"
            },
            {
              "internalType": "uint256",
              "name": "seats",
              "type": "uint256"
            },
            {
              "internalType": "uint256",
              "name": "startsAt",
              "type": "uint256"
            },
            {
              "internalType": "uint256",
              "name": "endsAt",
              "type": "uint256"
            },
            {
              "internalType": "uint256",
              "name": "timestamp",
              "type": "uint256"
            },
            {
              "internalType": "bool",
              "name": "deleted",
              "type": "bool"
            },
            {
              "internalType": "bool",
              "name": "paidOut",
              "type": "bool"
            },
            {
              "internalType": "bool",
              "name": "refunded",
              "type": "bool"
            },
            {
              "internalType": "bool",
              "name": "minted",
              "type": "bool"
            }
          ],
          "internalType": "struct DappEventX.EventStruct[]",
          "name": "Events",
          "type": "tuple[]"
        }
      ],
      "stateMutability": "view",
      "type": "function"
    },
    {
      "inputs": [],
      "name": "getMyEvents",
      "outputs": [
        {
          "components": [
            {
              "internalType": "uint256",
              "name": "id",
              "type": "uint256"
            },
            {
              "internalType": "string",
              "name": "title",
              "type": "string"
            },
            {
              "internalType": "string",
              "name": "imageUrl",
              "type": "string"
            },
            {
              "internalType": "string",
              "name": "description",
              "type": "string"
            },
            {
              "internalType": "address",
              "name": "owner",
              "type": "address"
            },
            {
              "internalType": "uint256",
              "name": "sales",
              "type": "uint256"
            },
            {
              "internalType": "uint256",
              "name": "ticketCost",
              "type": "uint256"
            },
            {
              "internalType": "uint256",
              "name": "capacity",
              "type": "uint256"
            },
            {
              "internalType": "uint256",
              "name": "seats",
              "type": "uint256"
            },
            {
              "internalType": "uint256",
              "name": "startsAt",
              "type": "uint256"
            },
            {
              "internalType": "uint256",
              "name": "endsAt",
              "type": "uint256"
            },
            {
              "internalType": "uint256",
              "name": "timestamp",
              "type": "uint256"
            },
            {
              "internalType": "bool",
              "name": "deleted",
              "type": "bool"
            },
            {
              "internalType": "bool",
              "name": "paidOut",
              "type": "bool"
            },
            {
              "internalType": "bool",
              "name": "refunded",
              "type": "bool"
            },
            {
              "internalType": "bool",
              "name": "minted",
              "type": "bool"
            }
          ],
          "internalType": "struct DappEventX.EventStruct[]",
          "name": "Events",
          "type": "tuple[]"
        }
      ],
      "stateMutability": "view",
      "type": "function"
    },
    {
      "inputs": [
        {
          "internalType": "uint256",
          "name": "eventId",
          "type": "uint256"
        }
      ],
      "name": "getSingleEvent",
      "outputs": [
        {
          "components": [
            {
              "internalType": "uint256",
              "name": "id",
              "type": "uint256"
            },
            {
              "internalType": "string",
              "name": "title",
              "type": "string"
            },
            {
              "internalType": "string",
              "name": "imageUrl",
              "type": "string"
            },
            {
              "internalType": "string",
              "name": "description",
              "type": "string"
            },
            {
              "internalType": "address",
              "name": "owner",
              "type": "address"
            },
            {
              "internalType": "uint256",
              "name": "sales",
              "type": "uint256"
            },
            {
              "internalType": "uint256",
              "name": "ticketCost",
              "type": "uint256"
            },
            {
              "internalType": "uint256",
              "name": "capacity",
              "type": "uint256"
            },
            {
              "internalType": "uint256",
              "name": "seats",
              "type": "uint256"
            },
            {
              "internalType": "uint256",
              "name": "startsAt",
              "type": "uint256"
            },
            {
              "internalType": "uint256",
              "name": "endsAt",
              "type": "uint256"
            },
            {
              "internalType": "uint256",
              "name": "timestamp",
              "type": "uint256"
            },
            {
              "internalType": "bool",
              "name": "deleted",
              "type": "bool"
            },
            {
              "internalType": "bool",
              "name": "paidOut",
              "type": "bool"
            },
            {
              "internalType": "bool",
              "name": "refunded",
              "type": "bool"
            },
            {
              "internalType": "bool",
              "name": "minted",
              "type": "bool"
            }
          ],
          "internalType": "struct DappEventX.EventStruct",
          "name": "",
          "type": "tuple"
        }
      ],
      "stateMutability": "view",
      "type": "function"
    },
    {
      "inputs": [
        {
          "internalType": "uint256",
          "name": "eventId",
          "type": "uint256"
        }
      ],
      "name": "getTickets",
      "outputs": [
        {
          "components": [
            {
              "internalType": "uint256",
              "name": "id",
              "type": "uint256"
            },
            {
              "internalType": "uint256",
              "name": "eventId",
              "type": "uint256"
            },
            {
              "internalType": "address",
              "name": "owner",
              "type": "address"
            },
            {
              "internalType": "uint256",
              "name": "ticketCost",
              "type": "uint256"
            },
            {
              "internalType": "uint256",
              "name": "timestamp",
              "type": "uint256"
            },
            {
              "internalType": "bool",
              "name": "refunded",
              "type": "bool"
            },
            {
              "internalType": "bool",
              "name": "minted",
              "type": "bool"
            }
          ],
          "internalType": "struct DappEventX.TicketStruct[]",
          "name": "",
          "type": "tuple[]"
        }
      ],
      "stateMutability": "view",
      "type": "function"
    },
    {
      "inputs": [
        {
          "internalType": "address",
          "name": "owner",
          "type": "address"
        },
        {
          "internalType": "address",
          "name": "operator",
          "type": "address"
        }
      ],
      "name": "isApprovedForAll",
      "outputs": [
        {
          "internalType": "bool",
          "name": "",
          "type": "bool"
        }
      ],
      "stateMutability": "view",
      "type": "function"
    },
    {
      "inputs": [],
      "name": "name",
      "outputs": [
        {
          "internalType": "string",
          "name": "",
          "type": "string"
        }
      ],
      "stateMutability": "view",
      "type": "function"
    },
    {
      "inputs": [],
      "name": "owner",
      "outputs": [
        {
          "internalType": "address",
          "name": "",
          "type": "address"
        }
      ],
      "stateMutability": "view",
      "type": "function"
    },
    {
      "inputs": [
        {
          "internalType": "uint256",
          "name": "tokenId",
          "type": "uint256"
        }
      ],
      "name": "ownerOf",
      "outputs": [
        {
          "internalType": "address",
          "name": "",
          "type": "address"
        }
      ],
      "stateMutability": "view",
      "type": "function"
    },
    {
      "inputs": [
        {
          "internalType": "uint256",
          "name": "eventId",
          "type": "uint256"
        }
      ],
      "name": "payout",
      "outputs": [],
      "stateMutability": "nonpayable",
      "type": "function"
    },
    {
      "inputs": [],
      "name": "renounceOwnership",
      "outputs": [],
      "stateMutability": "nonpayable",
      "type": "function"
    },
    {
      "inputs": [
        {
          "internalType": "address",
          "name": "from",
          "type": "address"
        },
        {
          "internalType": "address",
          "name": "to",
          "type": "address"
        },
        {
          "internalType": "uint256",
          "name": "tokenId",
          "type": "uint256"
        }
      ],
      "name": "safeTransferFrom",
      "outputs": [],
      "stateMutability": "nonpayable",
      "type": "function"
    },
    {
      "inputs": [
        {
          "internalType": "address",
          "name": "from",
          "type": "address"
        },
        {
          "internalType": "address",
          "name": "to",
          "type": "address"
        },
        {
          "internalType": "uint256",
          "name": "tokenId",
          "type": "uint256"
        },
        {
          "internalType": "bytes",
          "name": "data",
          "type": "bytes"
        }
      ],
      "name": "safeTransferFrom",
      "outputs": [],
      "stateMutability": "nonpayable",
      "type": "function"
    },
    {
      "inputs": [
        {
          "internalType": "address",
          "name": "operator",
          "type": "address"
        },
        {
          "internalType": "bool",
          "name": "approved",
          "type": "bool"
        }
      ],
      "name": "setApprovalForAll",
      "outputs": [],
      "stateMutability": "nonpayable",
      "type": "function"
    },
    {
      "inputs": [
        {
          "internalType": "bytes4",
          "name": "interfaceId",
          "type": "bytes4"
        }
      ],
      "name": "supportsInterface",
      "outputs": [
        {
          "internalType": "bool",
          "name": "",
          "type": "bool"
        }
      ],
      "stateMutability": "view",
      "type": "function"
    },
    {
      "inputs": [],
      "name": "symbol",
      "outputs": [
        {
          "internalType": "string",
          "name": "",
          "type": "string"
        }
      ],
      "stateMutability": "view",
      "type": "function"
    },
    {
      "inputs": [
        {
          "internalType": "uint256",
          "name": "tokenId",
          "type": "uint256"
        }
      ],
      "name": "tokenURI",
      "outputs": [
        {
          "internalType": "string",
          "name": "",
          "type": "string"
        }
      ],
      "stateMutability": "view",
      "type": "function"
    },
    {
      "inputs": [
        {
          "internalType": "address",
          "name": "from",
          "type": "address"
        },
        {
          "internalType": "address",
          "name": "to",
          "type": "address"
        },
        {
          "internalType": "uint256",
          "name": "tokenId",
          "type": "uint256"
        }
      ],
      "name": "transferFrom",
      "outputs": [],
      "stateMutability": "nonpayable",
      "type": "function"
    },
    {
      "inputs": [
        {
          "internalType": "address",
          "name": "newOwner",
          "type": "address"
        }
      ],
      "name": "transferOwnership",
      "outputs": [],
      "stateMutability": "nonpayable",
      "type": "function"
    },
    {
      "inputs": [
        {
          "internalType": "uint256",
          "name": "eventId",
          "type": "uint256"
        },
        {
          "internalType": "string",
          "name": "title",
          "type": "string"
        },
        {
          "internalType": "string",
          "name": "description",
          "type": "string"
        },
        {
          "internalType": "string",
          "name": "imageUrl",
          "type": "string"
        },
        {
          "internalType": "uint256",
          "name": "capacity",
          "type": "uint256"
        },
        {
          "internalType": "uint256",
          "name": "ticketCost",
          "type": "uint256"
        },
        {
          "internalType": "uint256",
          "name": "startsAt",
          "type": "uint256"
        },
        {
          "internalType": "uint256",
          "name": "endsAt",
          "type": "uint256"
        }
      ],
      "name": "updateEvent",
      "outputs": [],
      "stateMutability": "nonpayable",
      "type": "function"
    }
  ],
  "bytecode": "0x60806040523480156200001157600080fd5b5060405162003e1638038062003e1683398101604081905262000034916200010b565b6040518060400160405280600781526020016608aeccadce840b60cb1b8152506040518060400160405280600381526020016208aa8b60eb1b8152506200008a62000084620000b760201b60201c565b620000bb565b6001805560026200009c8382620001ca565b506003620000ab8282620001ca565b505050600b5562000296565b3390565b600080546001600160a01b038381166001600160a01b0319831681178455604051919092169283917f8be0079c531659141344cd1fd0a4f28419497f9722a3daafe3b4186f6b6457e09190a35050565b6000602082840312156200011e57600080fd5b5051919050565b634e487b7160e01b600052604160045260246000fd5b600181811c908216806200015057607f821691505b6020821081036200017157634e487b7160e01b600052602260045260246000fd5b50919050565b601f821115620001c557600081815260208120601f850160051c81016020861015620001a05750805b601f850160051c820191505b81811015620001c157828155600101620001ac565b5050505b505050565b81516001600160401b03811115620001e657620001e662000125565b620001fe81620001f784546200013b565b8462000177565b602080601f8311600181146200023657600084156200021d5750858301515b600019600386901b1c1916600185901b178555620001c1565b600085815260208120601f198616915b82811015620002675788860151825594840194600190910190840162000246565b5085821015620002865787850151600019600388901b60f8161c191681555b5050505050600190811b01905550565b613b7080620002a66000396000f3fe6080604052600436106101815760003560e01c8063835e489f116100d1578063b88d4fde1161008a578063e985e9c511610064578063e985e9c514610467578063ead6d0dd14610487578063f2fde38b146104a7578063f8749a58146104c757600080fd5b8063b88d4fde14610407578063c87b56dd14610427578063e11523431461044757600080fd5b8063835e489f1461036b5780638627df461461038b5780638da5cb5b1461039e57806395d89b41146103bc578063a22cb465146103d1578063b69ef8a8146103f157600080fd5b806323b872dd1161013e57806342842e0e1161011857806342842e0e146102e85780636352211e1461030857806370a0823114610328578063715018a61461035657600080fd5b806323b872dd146102915780633548124b146102b1578063404aa8f9146102d357600080fd5b806301ffc9a71461018657806306fdde03146101bb578063071843aa146101dd578063081812fc1461020a578063095ea7b31461024257806314f2979f14610264575b600080fd5b34801561019257600080fd5b506101a66101a1366004612f38565b6104e7565b60405190151581526020015b60405180910390f35b3480156101c757600080fd5b506101d0610539565b6040516101b29190612fa5565b3480156101e957600080fd5b506101fd6101f8366004612fb8565b6105cb565b6040516101b291906130c9565b34801561021657600080fd5b5061022a610225366004612fb8565b6108ea565b6040516001600160a01b0390911681526020016101b2565b34801561024e57600080fd5b5061026261025d3660046130f8565b610911565b005b34801561027057600080fd5b5061028461027f366004612fb8565b610a26565b6040516101b29190613122565b34801561029d57600080fd5b506102626102ac3660046131b1565b610aec565b3480156102bd57600080fd5b506102c6610b1d565b6040516101b291906131ed565b3480156102df57600080fd5b506102c6610ef3565b3480156102f457600080fd5b506102626103033660046131b1565b611275565b34801561031457600080fd5b5061022a610323366004612fb8565b611290565b34801561033457600080fd5b5061034861034336600461324f565b6112f0565b6040519081526020016101b2565b34801561036257600080fd5b50610262611376565b34801561037757600080fd5b50610262610386366004613316565b61138a565b6102626103993660046133c3565b611683565b3480156103aa57600080fd5b506000546001600160a01b031661022a565b3480156103c857600080fd5b506101d06119c5565b3480156103dd57600080fd5b506102626103ec3660046133e5565b6119d4565b3480156103fd57600080fd5b50610348600a5481565b34801561041357600080fd5b50610262610422366004613421565b6119e3565b34801561043357600080fd5b506101d0610442366004612fb8565b611a1b565b34801561045357600080fd5b50610262610462366004612fb8565b611a8f565b34801561047357600080fd5b506101a661048236600461349d565b611d1c565b34801561049357600080fd5b506102626104a23660046134d0565b611d4a565b3480156104b357600080fd5b506102626104c236600461324f565b6120bd565b3480156104d357600080fd5b506102626104e2366004612fb8565b612136565b60006001600160e01b031982166380ac58cd60e01b148061051857506001600160e01b03198216635b5e139f60e01b145b8061053357506301ffc9a760e01b6001600160e01b03198316145b92915050565b60606002805461054890613586565b80601f016020809104026020016040519081016040528092919081815260200182805461057490613586565b80156105c15780601f10610596576101008083540402835291602001916105c1565b820191906000526020600020905b8154815290600101906020018083116105a457829003601f168201915b5050505050905090565b6105d3612e94565b6000828152600e602052604090205460ff1661060a5760405162461bcd60e51b8152600401610601906135c0565b60405180910390fd5b6000828152600c60208190526040909120015460ff16156106655760405162461bcd60e51b8152602060048201526015602482015274115d995b9d08185b1c9958591e4819195b195d1959605a1b6044820152606401610601565b600c6000838152602001908152602001600020604051806102000160405290816000820154815260200160018201805461069e90613586565b80601f01602080910402602001604051908101604052809291908181526020018280546106ca90613586565b80156107175780601f106106ec57610100808354040283529160200191610717565b820191906000526020600020905b8154815290600101906020018083116106fa57829003601f168201915b5050505050815260200160028201805461073090613586565b80601f016020809104026020016040519081016040528092919081815260200182805461075c90613586565b80156107a95780601f1061077e576101008083540402835291602001916107a9565b820191906000526020600020905b81548152906001019060200180831161078c57829003601f168201915b505050505081526020016003820180546107c290613586565b80601f01602080910402602001604051908101604052809291908181526020018280546107ee90613586565b801561083b5780601f106108105761010080835404028352916020019161083b565b820191906000526020600020905b81548152906001019060200180831161081e57829003601f168201915b505050918352505060048201546001600160a01b03166020820152600582015460408201526006820154606082015260078201546080820152600882015460a0820152600982015460c0820152600a82015460e0820152600b82015461010080830191909152600c9092015460ff808216151561012084015292810483161515610140830152620100008104831615156101608301526301000000900490911615156101809091015292915050565b60006108f582612317565b506000908152600660205260409020546001600160a01b031690565b600061091c82611290565b9050806001600160a01b0316836001600160a01b0316036109895760405162461bcd60e51b815260206004820152602160248201527f4552433732313a20617070726f76616c20746f2063757272656e74206f776e656044820152603960f91b6064820152608401610601565b336001600160a01b03821614806109a557506109a58133611d1c565b610a175760405162461bcd60e51b815260206004820152603d60248201527f4552433732313a20617070726f76652063616c6c6572206973206e6f7420746f60448201527f6b656e206f776e6572206f7220617070726f76656420666f7220616c6c0000006064820152608401610601565b610a218383612376565b505050565b6060600d6000838152602001908152602001600020805480602002602001604051908101604052809291908181526020016000905b82821015610ae15760008481526020908190206040805160e08101825260068602909201805483526001808201548486015260028201546001600160a01b03169284019290925260038101546060840152600481015460808401526005015460ff808216151560a085015261010090910416151560c08301529083529092019101610a5b565b505050509050919050565b610af633826123e4565b610b125760405162461bcd60e51b8152600401610601906135ee565b610a21838383612443565b6060600060015b6008548111610b8e576000818152600c60208190526040909120015460ff16158015610b6957506000818152600c60205260409020600401546001600160a01b031633145b15610b7c5781610b7881613651565b9250505b80610b8681613651565b915050610b24565b508067ffffffffffffffff811115610ba857610ba861326a565b604051908082528060200260200182016040528015610be157816020015b610bce612e94565b815260200190600190039081610bc65790505b509150600060015b6008548111610eed576000818152600c60208190526040909120015460ff16158015610c2e57506000818152600c60205260409020600401546001600160a01b031633145b15610edb57600c60008281526020019081526020016000206040518061020001604052908160008201548152602001600182018054610c6c90613586565b80601f0160208091040260200160405190810160405280929190818152602001828054610c9890613586565b8015610ce55780601f10610cba57610100808354040283529160200191610ce5565b820191906000526020600020905b815481529060010190602001808311610cc857829003601f168201915b50505050508152602001600282018054610cfe90613586565b80601f0160208091040260200160405190810160405280929190818152602001828054610d2a90613586565b8015610d775780601f10610d4c57610100808354040283529160200191610d77565b820191906000526020600020905b815481529060010190602001808311610d5a57829003601f168201915b50505050508152602001600382018054610d9090613586565b80601f0160208091040260200160405190810160405280929190818152602001828054610dbc90613586565b8015610e095780601f10610dde57610100808354040283529160200191610e09565b820191906000526020600020905b815481529060010190602001808311610dec57829003601f168201915b505050918352505060048201546001600160a01b03166020820152600582015460408201526006820154606082015260078201546080820152600882015460a0820152600982015460c0820152600a82015460e0820152600b82015461010080830191909152600c9092015460ff80821615156101208401529281048316151561014083015262010000810483161515610160830152630100000090049091161515610180909101528483610ebd81613651565b945081518110610ecf57610ecf61366a565b60200260200101819052505b80610ee581613651565b915050610be9565b50505090565b6060600060015b6008548111610f3d576000818152600c60208190526040909120015460ff16610f2b5781610f2781613651565b9250505b80610f3581613651565b915050610efa565b508067ffffffffffffffff811115610f5757610f5761326a565b604051908082528060200260200182016040528015610f9057816020015b610f7d612e94565b815260200190600190039081610f755790505b509150600060015b6008548111610eed576000818152600c60208190526040909120015460ff1661126357600c60008281526020019081526020016000206040518061020001604052908160008201548152602001600182018054610ff490613586565b80601f016020809104026020016040519081016040528092919081815260200182805461102090613586565b801561106d5780601f106110425761010080835404028352916020019161106d565b820191906000526020600020905b81548152906001019060200180831161105057829003601f168201915b5050505050815260200160028201805461108690613586565b80601f01602080910402602001604051908101604052809291908181526020018280546110b290613586565b80156110ff5780601f106110d4576101008083540402835291602001916110ff565b820191906000526020600020905b8154815290600101906020018083116110e257829003601f168201915b5050505050815260200160038201805461111890613586565b80601f016020809104026020016040519081016040528092919081815260200182805461114490613586565b80156111915780601f1061116657610100808354040283529160200191611191565b820191906000526020600020905b81548152906001019060200180831161117457829003601f168201915b505050918352505060048201546001600160a01b03166020820152600582015460408201526006820154606082015260078201546080820152600882015460a0820152600982015460c0820152600a82015460e0820152600b82015461010080830191909152600c9092015460ff8082161515610120840152928104831615156101408301526201000081048316151561016083015263010000009004909116151561018090910152848361124581613651565b9450815181106112575761125761366a565b60200260200101819052505b8061126d81613651565b915050610f98565b610a21838383604051806020016040528060008152506119e3565b6000818152600460205260408120546001600160a01b0316806105335760405162461bcd60e51b8152602060048201526018602482015277115490cdcc8c4e881a5b9d985b1a59081d1bdad95b88125160421b6044820152606401610601565b60006001600160a01b03821661135a5760405162461bcd60e51b815260206004820152602960248201527f4552433732313a2061646472657373207a65726f206973206e6f7420612076616044820152683634b21037bbb732b960b91b6064820152608401610601565b506001600160a01b031660009081526005602052604090205490565b61137e6125a7565b6113886000612601565b565b600083116113aa5760405162461bcd60e51b815260040161060190613680565b600084116113ca5760405162461bcd60e51b8152600401610601906136c5565b600087511161141b5760405162461bcd60e51b815260206004820152601f60248201527f5469746c65206d7573742062652067726561746572207468616e207a65726f006044820152606401610601565b600086511161143c5760405162461bcd60e51b815260040161060190613707565b600085511161148d5760405162461bcd60e51b815260206004820152601a60248201527f496d6167652055726c2063616e206e6f7420626520656d7074790000000000006044820152606401610601565b600082116114ad5760405162461bcd60e51b81526004016106019061374c565b600081116114cd5760405162461bcd60e51b815260040161060190613790565b6114db600880546001019055565b6114e3612e94565b600854815260208101889052606081018790526040810186905260e0810185905260c0810184905261012081018390526101408101829052336080820152611529612651565b61016082015280516000908152600e60209081526040808320805460ff1916600190811790915584518452600c83529220835181559083015183928201906115719082613820565b50604082015160028201906115869082613820565b506060820151600382019061159b9082613820565b5060808201516004820180546001600160a01b0319166001600160a01b0390921691909117905560a0820151600582015560c0820151600682015560e082015160078201556101008083015160088301556101208301516009830155610140830151600a830155610160830151600b830155610180830151600c90920180546101a08501516101c08601516101e09096015161ffff1990921694151561ff001916949094179315159092029290921763ffff00001916620100009315159390930263ff0000001916929092176301000000921515929092029190911790555050505050505050565b6000828152600e602052604090205460ff166116b15760405162461bcd60e51b8152600401610601906135c0565b6116b9612651565b6000838152600c6020526040902060090154116117105760405162461bcd60e51b8152602060048201526015602482015274115d995b9d08185b1c9958591e481cdd185c9d1959605a1b6044820152606401610601565b6000828152600c602052604090206008015461172d9082906138e0565b6000838152600c6020526040902060070154101561178d5760405162461bcd60e51b815260206004820152601c60248201527f4e6f7420656e6f756768207469636b65747320617661696c61626c65000000006044820152606401610601565b6000828152600c60205260409020600601546117aa9082906138f3565b3410156117f15760405162461bcd60e51b8152602060048201526015602482015274139bdd08195b9bdd59da08195d1a195c881cd95b9d605a1b6044820152606401610601565b600081118015611802575060058111155b61184e5760405162461bcd60e51b815260206004820152601860248201527f43616e206f6e6c792062757920312d35207469636b65747300000000000000006044820152606401610601565b60005b81811015611996576118a66040518060e00160405280600081526020016000815260200160006001600160a01b0316815260200160008152602001600081526020016000151581526020016000151581525090565b6000848152600d6020908152604091829020548352820185905233908201526118cd612651565b608082019081526000858152600c6020908152604080832060069081015460608701908152898552600d84528285208054600181810183559187529585902088519690930290920194855592860151908401558401516002830180546001600160a01b039092166001600160a01b03199092169190911790555160038201559051600482015560a08201516005909101805460c09093015115156101000261ff00199215159290921661ffff19909316929092171790558061198e81613651565b915050611851565b506000828152600c6020526040812060080180548392906119b89084906138e0565b909155505034600a555050565b60606003805461054890613586565b6119df338383612670565b5050565b6119ed33836123e4565b611a095760405162461bcd60e51b8152600401610601906135ee565b611a158484848461273e565b50505050565b6060611a2682612317565b6000611a3d60408051602081019091526000815290565b90506000815111611a5d5760405180602001604052806000815250611a88565b80611a6784612771565b604051602001611a7892919061390a565b6040516020818303038152906040525b9392505050565b6000818152600e602052604090205460ff16611abd5760405162461bcd60e51b8152600401610601906135c0565b6000818152600c602081905260409091200154610100900460ff16611b245760405162461bcd60e51b815260206004820152601f60248201527f4576656e742068617320616c7265616479206265656e2070616964206f7574006044820152606401610601565b6000818152600c60205260409020600a0154611b3e612651565b11611b8b5760405162461bcd60e51b815260206004820152601760248201527f4576656e74206973207374696c6c206f6e20676f696e670000000000000000006044820152606401610601565b6000818152600c60205260409020600401546001600160a01b0316331480611bbd57506000546001600160a01b031633145b611c095760405162461bcd60e51b815260206004820181905260248201527f4f6e6c7920617574686f7269746965732063616e2073656e64207061796f75746044820152606401610601565b611c1281612804565b611c555760405162461bcd60e51b8152602060048201526014602482015273115d995b9d0819985a5b1959081d1bc81b5a5b9d60621b6044820152606401610601565b6000818152600c602052604081206008810154600690910154611c7891906138f3565b905060006064600b5483611c8c91906138f3565b611c969190613939565b6000848152600c6020526040902060040154909150611cc7906001600160a01b0316611cc2838561395b565b612906565b611ce2611cdc6000546001600160a01b031690565b82612906565b81600a6000828254611cf4919061395b565b909155505050600091825250600c6020819052604090912001805461ff001916610100179055565b6001600160a01b03918216600090815260076020908152604080832093909416825291909152205460ff1690565b6000888152600e602052604090205460ff16611d785760405162461bcd60e51b8152600401610601906135c0565b6000888152600c60205260409020600401546001600160a01b03163314611dd75760405162461bcd60e51b8152602060048201526013602482015272556e617574686f72697a65642061636365737360681b6044820152606401610601565b60008311611df75760405162461bcd60e51b815260040161060190613680565b60008411611e175760405162461bcd60e51b8152600401610601906136c5565b6000875111611e685760405162461bcd60e51b815260206004820152601f60248201527f5469746c65206d7573742062652067726561746572207468616e207a65726f006044820152606401610601565b6000865111611e895760405162461bcd60e51b815260040161060190613707565b6000855111611eda5760405162461bcd60e51b815260206004820152601a60248201527f496d6167652055726c2063616e206e6f7420626520656d7074790000000000006044820152606401610601565b60008211611efa5760405162461bcd60e51b81526004016106019061374c565b60008111611f1a5760405162461bcd60e51b815260040161060190613790565b6000888152600c6020526040902060018101611f368982613820565b5060038101611f458882613820565b5060028101611f548782613820565b50600781018590556006810184905560098101839055600a810182905580546000818152600c602052604090209081558190600181810190611f989084018261396e565b50600281810190611fab9084018261396e565b50600381810190611fbe9084018261396e565b5060048281015490820180546001600160a01b0319166001600160a01b039092169190911790556005808301549082015560068083015490820155600780830154908201556008808301549082015560098083015490820155600a8083015490820155600b8083015490820155600c918201805492909101805460ff938416151560ff19821681178355835461010090819004861615150261ff001990911661ffff19909216919091171780825582546201000090819004851615150262ff0000198216811783559254630100000090819004909416151590930263ff0000001990921663ffff00001990931692909217179055505050505050505050565b6120c56125a7565b6001600160a01b03811661212a5760405162461bcd60e51b815260206004820152602660248201527f4f776e61626c653a206e6577206f776e657220697320746865207a65726f206160448201526564647265737360d01b6064820152608401610601565b61213381612601565b50565b61213e612966565b6000818152600e602052604090205460ff1661216c5760405162461bcd60e51b8152600401610601906135c0565b6000818152600c60205260409020600401546001600160a01b031633148061219e57506000546001600160a01b031633145b6121e05760405162461bcd60e51b8152602060048201526013602482015272556e617574686f72697a65642061636365737360681b6044820152606401610601565b6000818152600c602081905260409091200154610100900460ff16156122415760405162461bcd60e51b8152602060048201526016602482015275115d995b9d08185b1c9958591e481c185a59081bdd5d60521b6044820152606401610601565b6000818152600c60208190526040909120015462010000900460ff16156122a35760405162461bcd60e51b8152602060048201526016602482015275115d995b9d08185b1c9958591e481c99599d5b99195960521b6044820152606401610601565b6122ac816129bf565b6122f15760405162461bcd60e51b8152602060048201526016602482015275115d995b9d0819985a5b1959081d1bc81c99599d5b9960521b6044820152606401610601565b6000818152600c6020819052604090912001805460ff1916600117905561213360018055565b6000818152600460205260409020546001600160a01b03166121335760405162461bcd60e51b8152602060048201526018602482015277115490cdcc8c4e881a5b9d985b1a59081d1bdad95b88125160421b6044820152606401610601565b600081815260066020526040902080546001600160a01b0319166001600160a01b03841690811790915581906123ab82611290565b6001600160a01b03167f8c5be1e5ebec7d5bd14f71427d1e84f3dd0314c0f7b2291e5b200ac8c7c3b92560405160405180910390a45050565b6000806123f083611290565b9050806001600160a01b0316846001600160a01b0316148061241757506124178185611d1c565b8061243b5750836001600160a01b0316612430846108ea565b6001600160a01b0316145b949350505050565b826001600160a01b031661245682611290565b6001600160a01b03161461247c5760405162461bcd60e51b815260040161060190613a49565b6001600160a01b0382166124de5760405162461bcd60e51b8152602060048201526024808201527f4552433732313a207472616e7366657220746f20746865207a65726f206164646044820152637265737360e01b6064820152608401610601565b826001600160a01b03166124f182611290565b6001600160a01b0316146125175760405162461bcd60e51b815260040161060190613a49565b600081815260066020908152604080832080546001600160a01b03199081169091556001600160a01b0387811680865260058552838620805460001901905590871680865283862080546001019055868652600490945282852080549092168417909155905184937fddf252ad1be2c89b69c2b068fc378daa952ba7f163c4a11628f55a4df523b3ef91a4505050565b6000546001600160a01b031633146113885760405162461bcd60e51b815260206004820181905260248201527f4f776e61626c653a2063616c6c6572206973206e6f7420746865206f776e65726044820152606401610601565b600080546001600160a01b038381166001600160a01b0319831681178455604051919092169283917f8be0079c531659141344cd1fd0a4f28419497f9722a3daafe3b4186f6b6457e09190a35050565b600061265f426103e86138f3565b61266b906103e86138e0565b905090565b816001600160a01b0316836001600160a01b0316036126d15760405162461bcd60e51b815260206004820152601960248201527f4552433732313a20617070726f766520746f2063616c6c6572000000000000006044820152606401610601565b6001600160a01b03838116600081815260076020908152604080832094871680845294825291829020805460ff191686151590811790915591519182527f17307eab39ab6107e8899845ad3d59bd9653f200f220920489ca2b5937696c31910160405180910390a3505050565b612749848484612443565b61275584848484612b30565b611a155760405162461bcd60e51b815260040161060190613a8e565b6060600061277e83612c31565b600101905060008167ffffffffffffffff81111561279e5761279e61326a565b6040519080825280601f01601f1916602001820160405280156127c8576020820181803683370190505b5090508181016020015b600019016f181899199a1a9b1b9c1cb0b131b232b360811b600a86061a8153600a85049450846127d257509392505050565b6000805b6000838152600d60205260409020548110156128dc5761282c600980546001019055565b6000838152600d60205260409020805460019190839081106128505761285061366a565b906000526020600020906006020160050160016101000a81548160ff0219169083151502179055506128ca600d6000858152602001908152602001600020828154811061289f5761289f61366a565b60009182526020909120600260069092020101546001600160a01b03166128c560095490565b612d09565b806128d481613651565b915050612808565b50506000908152600c6020819052604090912001805463ff00000019166301000000179055600190565b6000826001600160a01b03168260405160006040518083038185875af1925050503d8060008114612953576040519150601f19603f3d011682016040523d82523d6000602084013e612958565b606091505b5050905080610a2157600080fd5b6002600154036129b85760405162461bcd60e51b815260206004820152601f60248201527f5265656e7472616e637947756172643a207265656e7472616e742063616c6c006044820152606401610601565b6002600155565b6000805b6000838152600d6020526040902054811015612b08576000838152600d60205260409020805460019190839081106129fd576129fd61366a565b906000526020600020906006020160050160006101000a81548160ff021916908315150217905550600d60008481526020019081526020016000208181548110612a4957612a4961366a565b906000526020600020906006020160030154600a6000828254612a6c919061395b565b90915550506000838152600d602052604090208054612af6919083908110612a9657612a9661366a565b906000526020600020906006020160020160009054906101000a90046001600160a01b0316600d60008681526020019081526020016000208381548110612adf57612adf61366a565b906000526020600020906006020160030154612906565b80612b0081613651565b9150506129c3565b50506000908152600c6020819052604090912001805462ff0000191662010000179055600190565b60006001600160a01b0384163b15612c2657604051630a85bd0160e11b81526001600160a01b0385169063150b7a0290612b74903390899088908890600401613ae0565b6020604051808303816000875af1925050508015612baf575060408051601f3d908101601f19168201909252612bac91810190613b1d565b60015b612c0c573d808015612bdd576040519150601f19603f3d011682016040523d82523d6000602084013e612be2565b606091505b508051600003612c045760405162461bcd60e51b815260040161060190613a8e565b805181602001fd5b6001600160e01b031916630a85bd0160e11b14905061243b565b506001949350505050565b60008072184f03e93ff9f4daa797ed6e38ed64bf6a1f0160401b8310612c705772184f03e93ff9f4daa797ed6e38ed64bf6a1f0160401b830492506040015b6d04ee2d6d415b85acef81000000008310612c9c576d04ee2d6d415b85acef8100000000830492506020015b662386f26fc100008310612cba57662386f26fc10000830492506010015b6305f5e1008310612cd2576305f5e100830492506008015b6127108310612ce657612710830492506004015b60648310612cf8576064830492506002015b600a83106105335760010192915050565b6001600160a01b038216612d5f5760405162461bcd60e51b815260206004820181905260248201527f4552433732313a206d696e7420746f20746865207a65726f20616464726573736044820152606401610601565b6000818152600460205260409020546001600160a01b031615612dc45760405162461bcd60e51b815260206004820152601c60248201527f4552433732313a20746f6b656e20616c7265616479206d696e746564000000006044820152606401610601565b6000818152600460205260409020546001600160a01b031615612e295760405162461bcd60e51b815260206004820152601c60248201527f4552433732313a20746f6b656e20616c7265616479206d696e746564000000006044820152606401610601565b6001600160a01b038216600081815260056020908152604080832080546001019055848352600490915280822080546001600160a01b0319168417905551839291907fddf252ad1be2c89b69c2b068fc378daa952ba7f163c4a11628f55a4df523b3ef908290a45050565b6040518061020001604052806000815260200160608152602001606081526020016060815260200160006001600160a01b03168152602001600081526020016000815260200160008152602001600081526020016000815260200160008152602001600081526020016000151581526020016000151581526020016000151581526020016000151581525090565b6001600160e01b03198116811461213357600080fd5b600060208284031215612f4a57600080fd5b8135611a8881612f22565b60005b83811015612f70578181015183820152602001612f58565b50506000910152565b60008151808452612f91816020860160208601612f55565b601f01601f19169290920160200192915050565b602081526000611a886020830184612f79565b600060208284031215612fca57600080fd5b5035919050565b6000610200825184526020830151816020860152612ff182860182612f79565b9150506040830151848203604086015261300b8282612f79565b915050606083015184820360608601526130258282612f79565b915050608083015161304260808601826001600160a01b03169052565b5060a0838101519085015260c0808401519085015260e080840151908501526101008084015190850152610120808401519085015261014080840151908501526101608084015190850152610180808401511515908501526101a0808401511515908501526101c0808401511515908501526101e092830151151592909301919091525090565b602081526000611a886020830184612fd1565b80356001600160a01b03811681146130f357600080fd5b919050565b6000806040838503121561310b57600080fd5b613114836130dc565b946020939093013593505050565b602080825282518282018190526000919060409081850190868401855b828110156131a4578151805185528681015187860152858101516001600160a01b031686860152606080820151908601526080808201519086015260a08082015115159086015260c09081015115159085015260e0909301929085019060010161313f565b5091979650505050505050565b6000806000606084860312156131c657600080fd5b6131cf846130dc565b92506131dd602085016130dc565b9150604084013590509250925092565b6000602080830181845280855180835260408601915060408160051b870101925083870160005b8281101561324257603f19888603018452613230858351612fd1565b94509285019290850190600101613214565b5092979650505050505050565b60006020828403121561326157600080fd5b611a88826130dc565b634e487b7160e01b600052604160045260246000fd5b600067ffffffffffffffff8084111561329b5761329b61326a565b604051601f8501601f19908116603f011681019082821181831017156132c3576132c361326a565b816040528093508581528686860111156132dc57600080fd5b858560208301376000602087830101525050509392505050565b600082601f83011261330757600080fd5b611a8883833560208501613280565b600080600080600080600060e0888a03121561333157600080fd5b873567ffffffffffffffff8082111561334957600080fd5b6133558b838c016132f6565b985060208a013591508082111561336b57600080fd5b6133778b838c016132f6565b975060408a013591508082111561338d57600080fd5b5061339a8a828b016132f6565b979a96995096976060810135975060808101359660a0820135965060c090910135945092505050565b600080604083850312156133d657600080fd5b50508035926020909101359150565b600080604083850312156133f857600080fd5b613401836130dc565b91506020830135801515811461341657600080fd5b809150509250929050565b6000806000806080858703121561343757600080fd5b613440856130dc565b935061344e602086016130dc565b925060408501359150606085013567ffffffffffffffff81111561347157600080fd5b8501601f8101871361348257600080fd5b61349187823560208401613280565b91505092959194509250565b600080604083850312156134b057600080fd5b6134b9836130dc565b91506134c7602084016130dc565b90509250929050565b600080600080600080600080610100898b0312156134ed57600080fd5b88359750602089013567ffffffffffffffff8082111561350c57600080fd5b6135188c838d016132f6565b985060408b013591508082111561352e57600080fd5b61353a8c838d016132f6565b975060608b013591508082111561355057600080fd5b5061355d8b828c016132f6565b989b979a50959860808101359760a0820135975060c0820135965060e090910135945092505050565b600181811c9082168061359a57607f821691505b6020821081036135ba57634e487b7160e01b600052602260045260246000fd5b50919050565b602080825260149082015273115d995b9d08191bd95cc81b9bdd08195e1a5cdd60621b604082015260600190565b6020808252602d908201527f4552433732313a2063616c6c6572206973206e6f7420746f6b656e206f776e6560408201526c1c881bdc88185c1c1c9bdd9959609a1b606082015260800190565b634e487b7160e01b600052601160045260246000fd5b6000600182016136635761366361363b565b5060010190565b634e487b7160e01b600052603260045260246000fd5b60208082526025908201527f5469636b657420436f7374206d7573742062652067726561746572207468616e604082015264207a65726f60d81b606082015260800190565b60208082526022908201527f4361706163697479206d7573742062652067726561746572207468616e207a65604082015261726f60f01b606082015260800190565b60208082526025908201527f4465736372697074696f6e206d7573742062652067726561746572207468616e604082015264207a65726f60d81b606082015260800190565b60208082526024908201527f53746172742064617465206d7573742062652067726561746572207468616e206040820152637a65726f60e01b606082015260800190565b60208082526022908201527f456e642064617465206d7573742062652067726561746572207468616e207a65604082015261726f60f01b606082015260800190565b601f821115610a2157600081815260208120601f850160051c810160208610156137f95750805b601f850160051c820191505b8181101561381857828155600101613805565b505050505050565b815167ffffffffffffffff81111561383a5761383a61326a565b61384e816138488454613586565b846137d2565b602080601f831160018114613883576000841561386b5750858301515b600019600386901b1c1916600185901b178555613818565b600085815260208120601f198616915b828110156138b257888601518255948401946001909101908401613893565b50858210156138d05787850151600019600388901b60f8161c191681555b5050505050600190811b01905550565b808201808211156105335761053361363b565b80820281158282048414176105335761053361363b565b6000835161391c818460208801612f55565b835190830190613930818360208801612f55565b01949350505050565b60008261395657634e487b7160e01b600052601260045260246000fd5b500490565b818103818111156105335761053361363b565b818103613979575050565b6139838254613586565b67ffffffffffffffff81111561399b5761399b61326a565b6139a9816138488454613586565b6000601f8211600181146139dd57600083156139c55750848201545b600019600385901b1c1916600184901b178455613a42565b600085815260209020601f19841690600086815260209020845b83811015613a1757828601548255600195860195909101906020016139f7565b5085831015613a355781850154600019600388901b60f8161c191681555b50505060018360011b0184555b5050505050565b60208082526025908201527f4552433732313a207472616e736665722066726f6d20696e636f72726563742060408201526437bbb732b960d91b606082015260800190565b60208082526032908201527f4552433732313a207472616e7366657220746f206e6f6e20455243373231526560408201527131b2b4bb32b91034b6b83632b6b2b73a32b960711b606082015260800190565b6001600160a01b0385811682528416602082015260408101839052608060608201819052600090613b1390830184612f79565b9695505050505050565b600060208284031215613b2f57600080fd5b8151611a8881612f2256fea264697066735822122082b127b34f002481cedd91a20bf73e63b797d43e0ab1ab98bc314a3aa0703a9864736f6c63430008110033",
  "linkReferences": {},
  "deployedLinkReferences": {}
}